:020000021000EC
:10C000000040002081C50100BDC50100BFC5010081
:10C010000000000000000000000000000000000020
:10C02000000000000000000000000000C1C5010089
:10C030000000000000000000C3C50100C5C50100EC
:10C04000C7C50100C7C50100FDCC0100C7C501007F
:10C05000C7C5010000000000C7C50100C7C5010039
:10C06000E1C40100F5C4010009C50100C7C5010014
:10C07000C7C50100C7C50100C7C50100C7C501008C
:10C08000C7C5010011CF0100C7C50100C7C5010028
:10C09000C7C50100C7C50100C7C50100C7C501006C
:10C0A000C7C50100C7C50100000000000000000076
:10C0B0000000000000000000000000000000000080
:10C0C00010B5064C2378002B07D1054B002B02D06E
:10C0D000044800E000BF0123237010BD8028002029
:10C0E000000000005411020008B5084B002B03D0DB
:10C0F0000748084900E000BF07480368002B03D049
:10C10000064B002B00D0984708BDC0460000000039
:10C110005411020084280020802800200000000024
:10C12000164B002B00D1144B9D46402292029A1AC6
:10C13000924600218B460F461348144A121A02F009
:10C1400092FA0F4B002B00D098470E4B002B00D0DB
:10C1500098470020002104000D000D48002802D05F
:10C160000C4800E000BF02F04FFA2000290000F068
:10C170001BFC02F033FAC04600000800004000201B
:10C18000000000000000000080280020902900200E
:10C19000000000000000000008B5084B01221978DB
:10C1A00051401970064B1878002901D0597801E0E8
:10C1B0005978514000F038FB08BDC0469C2800204B
:10C1C000E028002010B50A4CE121201C490200F0B3
:10C1D000D7FB0849201C00F0A5FA074C074B201C90
:10C1E000636000F097F8201C054900F035F910BD98
:10C1F00058290020300C02000029002099C10100BC
:10C20000400D030038B5114800F0DEFA104C11491A
:10C21000201C00F087FA1049201C00F06EFA0F4D28
:10C22000281C00F0F5F80A22011C201C00F0B7FAC7
:10C230000B49201C00F061FA281C00F005F90A22C5
:10C24000011C201C00F0ABFA38BDC046881300006A
:10C2500058290020450C02004A0C02000029002049
:10C26000610C020070B51D4E0921301C012200F046
:10C270006BF91B4D1B4C291C221C301C00F09DFF30
:10C28000194E0821301C012200F05EF9291C221CE5
:10C29000301C00F092FF154E1221301C012200F0DC
:10C2A00053F9291C221C301C00F087FF104E04217A
:10C2B000301C012200F048F9291C221C301C00F01F
:10C2C0007CFF0C4E1121301C012200F03DF9301C86
:10C2D000291C221C00F071FF70BDC046A028002060
:10C2E00065C5010000280020B0280020C0280020DB
:10C2F000D0280020E028002003680022FC3310B57D
:10C300001A654368041C934200D0984723680122B1
:10C310001A6010BD42683049531E9A41036810B537
:10C32000D2B28B420FD12D490860002A33D02C4A5B
:10C33000C22189005058FF24A0434024204350507C
:10C340008021490026E027498B4210D12649086008
:10C35000002A20D0224AC221890054582348204074
:10C360008024E401204350508021890012E02049BC
:10C370008B4210D11F490860002A0CD0184AC221F4
:10C38000890054581C4820408024E4032043505026
:10C390008021C90011601949012219485A605A5078
:10C3A00000211950A120C0001950A2200624C0006D
:10C3B0001C501448048814481C50181CFC3001659B
:10C3C0008020C12100038900585010488021890035
:10C3D00058501A6010BDC046008000400829002057
:10C3E00000E100E0009000400C290020FF00FFFF6A
:10C3F00000A0004010290020FFFF00FFFC0F0000FC
:10C4000004050000042800204C0500000808000076
:10C4100008B50268A223DB00D05804F00DF8021C16
:10C420000B1C0449024800F043FF02F0FDF908BD6F
:10C4300000000000000000400368A2200122C000AC
:10C440005A6019501A6070470268014BD058704703
:10C450004C05000000000000F0B5061C85B01E4F22
:10C46000002907D10121FFF7E7FF33680122DA51E4
:10C47000D85929E009010091081C184902F002F975
:10C48000013003F0D9FF03AA00F0CEFE039B181C75
:10C49000019303F093FF021C0B1C0E490C4800F0A3
:10C4A00007FF041C0D1C009803F0C6FF221C2B1C68
:10C4B00002F02CFD02F0B8F90199041C301CFFF7C2
:10C4C000BBFF3368201CDC5105B0F0BDC046C04640
:10C4D00000000000000000404C050000FFFF0000CD
:10C4E00008B5034B1868002801D0FFF705FF08BD09
:10C4F0000829002008B5034B1868002801D0FFF771
:10C50000FBFE08BD0C29002008B5034B1868002865
:10C5100001D0FFF7F1FE08BD10290020044B054AA9
:10C520001A60054B054A1A60054A064B1A607047A7
:10C53000F028002000800040F828002000900040F3
:10C5400000A000400029002010B5052383601323BC
:10C55000041C01704270C360081C012100F03CF90A
:10C56000201C10BD10B5041C6378012159400078CF
:10C5700000F05AF92078002100F02EF9201C10BD9F
:10C580000848026803210A4302600749074A084B2A
:10C590009B1A03DD043BC858D050FBDC054880479C
:10C5A00005480047240500406011020000280020D3
:10C5B00080280020C9C5010021C10100FEE7FEE777
:10C5C000FEE7FEE7FEE7FEE7334B10B51A78181CCE
:10C5D000012A12D1314B1B6819070ED1304BF022C2
:10C5E0001B68E024191C1140234204D12D4B1B6809
:10C5F000134202D140E03029F8D00378012B0DD14D
:10C60000264A1268110709D1254A1168F022114003
:10C61000402903D123490968114235D08023A32141
:10C62000DB050122C9005A501F49002088609A602A
:10C630001E4B8A68002A2DD1C822C046C046C0467B
:10C64000C046C046C046C046C046C046C046C046BA
:10C65000C046C046C046013A002AEED1013B002B3D
:10C66000E7D18022A320D205C0001350012393609C
:10C670008B68002BFCD00DE00D490E4A1160802123
:10C680000D4A09021160B8E7C1228021D200C90514
:10C690008B50C3E710BDC046E00F00F0E40F00F080
:10C6A000E80F00F0EC0F00F0FC00004088130000E1
:10C6B000DFFF07C004050040186C0040F8B5061CF9
:10C6C0000C1C8F180025BC4207D0336821781B68EA
:10C6D000301C984701342D18F5E7281CF8BD38B5F3
:10C6E000051C0C1C081E07D001F0C5FF2B68021C9E
:10C6F0005B68281C211C984738BD08B5FFF7EFFF81
:10C7000008BD08B503681B68984708BD38B50D21FA
:10C71000041CFFF7F6FF0A21051C201CFFF7F1FFA0
:10C72000401938BD38B5041CFFF7D9FF051C201C83
:10C73000FFF7ECFF281838BDF0B58BB0151C09AB1E
:10C740000022071C0E1C1A70012D00D80A256C4609
:10C750002334301C291C01F095FF031C6B43F61A8F
:10C76000F6B2211C092E01D8303600E03736F6B279
:10C770002670013C002801D0061CEAE7381CFFF7B0
:10C78000AEFF0BB0F0BD08B5002A04D10368C9B2F2
:10C790001B68984702E0D2B2FFF7CEFF08BD38B55C
:10C7A000041CFFF7F0FF051C201CFFF7AFFF40192A
:10C7B00038BD38B5041C00F017FC051C00F014FC53
:10C7C000401BA042FAD338BD08B5FA239B0058435A
:10C7D000FFF7EFFF08BD000030B587B00C1C00F07C
:10C7E000A9FC051C431C04D10D480E490F2200F082
:10C7F000EBF86B461D70012C06D0002C04D0022CE7
:10C800000BD10021032501E0211C0025684600F022
:10C810009FF96846291C00F095F907B030BDC04665
:10C820006F0C0200860C020038B50D1C00F082FC73
:10C83000041C431C04D109480949232200F0C4F810
:10C840000122A023A240DB05141C002D02D0A1214F
:10C85000C90000E003495C5038BDC0466F0C0200BF
:10C86000860C02000C05000001207047054B1A1CC5
:10C870004032107841331B784030C01A3F231840B3
:10C880007047C04614290020084A111C101C413171
:10C8900040300B780078984205D0D05C01333F22BD
:10C8A00013400B7001E00120404270471429002022
:10C8B000064B1A1C191C41324031127809789142FA
:10C8C00001D0985C01E0012040427047142900200B
:10C8D00007B5034B6846009300F084FA0EBDC046CE
:10C8E0000020004007B5044B0093684600F088FA2A
:10C8F0000028FAD007BDC0460020004030B5074BE5
:10C900003F211A1C40321478651C29401D1C4135FA
:10C910002D788D4201D01855117030BD142900209A
:10C9200000234360FA239B008360024B08330360BB
:10C930007047C046000D020073B5101C1E1C0C1C75
:10C9400000F0F8FB051C301C00F0F4FB0B4B2A1C1C
:10C95000011C6846009300F05BF901235B421A1C3E
:10C960006846002100F054FA6846211C00F02CF9BA
:10C9700068460021012200F0EFF973BD002000405D
:10C9800008B500220123FFF7D7FF08BD08B503480B
:10C9900000F0DAFB0248FFF7C3FF08BD14290020AE
:10C9A000582900207047704708B5FFF7FCFFFFF7D4
:10C9B000F9FF00F0B9FB08BD08B5002800D1FEE77B
:10C9C00000F026F8FBE7000038B5051C0C1C131C12
:10C9D000291C0248221C00F054F838BD280D020022
:10C9E00038B50023C356041C0D1C013304D106487E
:10C9F00006492422FFF7E8FF6368002D01D0E268B2
:10CA000000E02269136038BD590D0200710D02006B
:10CA100000B599B068460F2100F065F806A80F210F
:10CA200000F061F80CA80F2100F05DF812A80F21AA
:10CA300000F059F868460121FFF7D2FF06A800214F
:10CA4000FFF7CEFF0CA80021FFF7CAFF12A80121B3
:10CA5000FFF7C6FF962000F056F868460021FFF762
:10CA6000BFFF06A80121FFF7BBFF0CA80121FFF7BC
:10CA7000B7FF12A80021FFF7B3FF962000F043F89C
:10CA8000D8E70FB4012008B501F0A8FD38B50023A0
:10CA9000C356041C0D1C013304D106480649242248
:10CAA000FFF792FF6368002D01D0E26800E0226981
:10CAB000136038BD590D0200710D020070B50D1CD8
:10CAC000041C161C00F026F801350BD0201C311C6C
:10CAD000FFF7DCFF201C012100F03AF8201C0021A8
:10CAE00000F030F870BD08B50022FFF7E7FF08BD81
:10CAF00038B5041C00F078FA051C00F075FA401BEC
:10CB0000A042FAD338BD08B5FA239B005843FFF77B
:10CB1000EFFF08BD01704B1C0AD001238B4043601E
:10CB2000044BC360044B0361044B4361044B8360BB
:10CB30007047C046080500500C0500501005005015
:10CB40001405005008B5007840B200F01FF808BD89
:10CB500038B50023C356051C0C1C013304D1094809
:10CB600009492A22FFF730FF002C01D0012C07D100
:10CB70000022AA56A023C132FF329200DB05D45016
:10CB800038BDC046590D0200150E020038B5041C10
:10CB90000D1C431C04D10A480A491A22FFF714FF4E
:10CBA000A023A000DB05C018E023DB00C2580C2145
:10CBB0008A43C250C258AD001543C55038BDC04667
:10CBC0005E0D0200B60E0200962210B50123D200BF
:10CBD000914203DC9E210268C90212E00A4ADC008D
:10CBE000A458A14207DA013BDB00D2180168526861
:10CBF000064BCA5007E00133112BEFD180210268A8
:10CC00004905024BD15010BD580F02002405000009
:10CC1000F8B5314B161C0360304AA023DB05051C18
:10CC20000F1C01209958B840014399509C5880210D
:10CC300049000C439C502A4C1A59104318511A5958
:10CC4000281C114319511A590121B1408A431A5124
:10CC50001959244A0A4096211A518901FFF7B4FF55
:10CC60002B68214900205850A0210420C9005850A9
:10CC7000012199601960191CFC3100220120CA6051
:10CC800042421A481A501A4800220A621A5017489B
:10CC90000A6A012AFCD10021A1226960D200082180
:10CCA0009950A2220A21D2001F5099501E517A1C7D
:10CCB00003D0381C0321FFF769FF731C03D0301C1D
:10CCC0000321FFF763FF0B4B01221A60291C082286
:10CCD000094801F0BFFCF8BD002000400405000039
:10CCE00014050000FFFBFFFF6C0500000C050000B1
:10CCF0001C0500006829002074290020124AC12365
:10CD00009B00D15810B5080603D51049096A0029BF
:10CD100011D1D3585A0716D50C4BDA68002A12D015
:10CD20000024DC60084AA323DB00D058C0B2FFF720
:10CD3000E5FD211C00E00121054B1868002802D008
:10CD4000044B1B68984710BD00200040FC200040A9
:10CD5000702900206C29002030B503681E4C18197A
:10CD6000444260414000002A1BD0002903D0012921
:10CD700005D1802100E00421C12292009950174B77
:10CD8000C022920040B29C58C100FF258D40AC43A8
:10CD9000C0258D40291C21439950012282401A60F0
:10CDA00018E0002908D0012914D1C2229200802461
:10CDB0009C509B589B0806E0C22292000421995087
:10CDC0009B580121DB09994304D001238340181C9F
:10CDD000034BD86730BDC04600E0FFBF00E100E074
:10CDE00004E100E003681A1CFC32106A0128FAD141
:10CDF00000201062014AC9B2995070471C0500001A
:10CE00000368FC33186A01384342584170470000F8
:10CE1000F7B50E1C01930223041C0D1C171C9E4326
:10CE2000012E13D11F4BA022D205D158301CB8407F
:10CE30000143D150381C0321FFF7A8FE2368A1222B
:10CE4000D2009F50184A99580E439E50AB1E012B9A
:10CE500016D8144BA022019ED2050125D158281CBA
:10CE6000B0408143D150301C0321FFF78FFE23686F
:10CE7000A222D2009E500C4A99580D439D500FE0BB
:10CE8000002D0DD123680122A1215242C9005A5020
:10CE9000A221C9005A50044A01209958814399504F
:10CEA000F7BDC046140500006C0500000A490B4A96
:10CEB00088680B4B002808D01868013018600020E3
:10CEC00088600220D2218140505006491B68525888
:10CED0001806190A10437047FC1001400010014069
:10CEE00080290020040500002F23C046C046C0460C
:10CEF000C046C046C046C046C046C046C046C04602
:10CF0000C046C046C046013B002BEED17047000032
:10CF1000F8B5184B9A68002A0AD0174A02201168FF
:10CF20000131116000229A601449D2228240885057
:10CF30005B6C124C002B1CD00E4B8025D222920031
:10CF400000266D025E64A5500D4A1378B34210D0DE
:10CF50000C4B1F68FFF7AAFF3F1AB74209DC084BCA
:10CF6000D2221E70C2239B009200E550A55000F013
:10CF7000F9F8F8BDFC1001408029002000100140A4
:10CF8000852900207C29002038B5124C2278002AFF
:10CF90001FD1114BA121C9005A500222D221914028
:10CFA0005A50C12191405A500C4AC4218900555809
:10CFB0000B482840C0252D02284350508021C02016
:10CFC000890240000125115011601D60FFF78CFFA0
:10CFD000257038BD842900200010014000E100E0E8
:10CFE000FF00FFFF0000000008B50B4B1B78002B73
:10CFF00001D1FFF7C9FFFFF759FF064B044A01F0C3
:10D00000EFFB4904C00B084308BDC046C046C046FC
:10D0100040420F000000000084290020C046C046A6
:10D020002F4B70B51B78061C002B01D1FFF7ACFF0E
:10D03000FFF73CFF254B244A01F0D2FB4B04C00B09
:10D04000002400251843CD0B0023321CA4185D4199
:10D0500080231B06984205D9002E03DB1C4A1D4B7A
:10D06000A4185D41610CEB030B43E2031A481B4912
:10D0700080185941154B144A01F092FB194D041CBC
:10D080002B78194E002B02D0336898421BD0FFF743
:10D090000DFF201A022802DCFFF708FF841C210282
:10D0A000124BA822D200090A99502A783460002A2B
:10D0B00009D101222A70D2218022520289005A50BD
:10D0C000C12189005A5070BD40420F00000000008D
:10D0D00000000000010000003F420F0000000000BF
:10D0E00084290020852900207C290020001001408F
:10D0F000074B1A78002A0AD0064A8021C22049022A
:10D1000080001150D2208000115000221A70704708
:10D110008529002000100140024B00229A605A64C9
:10D120007047C046FC10014008B5FFF74BF8FFF709
:10D1300069F8FCE7FF23182801D8024B1B5C58B2A2
:10D140007047C046E80F020010B50021041C4022C1
:10D1500001F089FA221C40320023201C1370537006
:10D1600010BD000008B5024800F004F808BDC04634
:10D170001810020038B50368041CDB689847636820
:10D180005A682368002A02D19B68984714E05B68BC
:10D190001568984763682D1A002D08DC5A68916855
:10D1A00059601B68002BEAD050689847E7E75B6836
:10D1B000226818681369984738BD08B5031C081C15
:10D1C000191C01F0F5F908BD0B1C011C021C30B53F
:10D1D00019430220002900D130BD802109068B426D
:10D1E00016D00D4904205C180C498C42F4D90C4D22
:10D1F0005C198C42F0D90B4C590049080320A1421C
:10D20000EAD9074C0020A142E6D150425041E3E761
:10D21000002AE1D0EFE7C0460000F0FFFFFFDF7F0C
:10D220000000F07FFFFF0F00F0B5474690464646EE
:10D23000002280B43260184A4B00041C8C465B0804
:10D24000061C0F1C93421CDC1C431AD0134C0022FA
:10D25000A34208DC0F4B0E4A02F0C2FA36224B0002
:10D260008C465B0852420E4C1B151B199A184646F9
:10D270000C4B3260624613400B4A061C111C1943CA
:10D280000F1C301C391C04BC9046F0BDC046C04683
:10D290000000000000005043FFFFEF7FFFFF0F0082
:10D2A00002FCFFFFFFFF0F800000E03FC046C046CA
:10D2B000F0B546464F46C0B48FB0161C1F1C0090F8
:10D2C000019100F0ADF9BC4A0023D356041C0D1C9B
:10D2D000904602940395013305D0301C391CFFF7AA
:10D2E00073FF002806D1029803990FB00CBC90463A
:10D2F0009946F0BD00980199FFF766FF8146002826
:10D3000031D1301C391CA14B9F4A01F01BFA002877
:10D31000E9D001230493A94B04AC63604B4623621C
:10D32000009A019BA260E360994A9A4BA261E36173
:10D3300042460023D356266167615A1C0ED0022B49
:10D340000CD0201C00F0EEFF002800D17BE0236A07
:10D35000002B03D001F03CF9236A0360A269E36962
:10D3600002920393BFE700980199884B864A01F027
:10D37000E9F9002822D0301C391C844B824A01F084
:10D38000E1F9051E2CD0012304938C4B04AC63609F
:10D3900000232362009A019BA260E3607B4B7A4AE0
:10D3A000A261E36142460023D35626616761002BE8
:10D3B000C7D0774A774BA261E361CFE7201C291CD5
:10D3C00000F0A8FF8146002842D0201C291C6F4B8A
:10D3D0006D4A01F0B7F900286CD10294039582E7F9
:10D3E000301C391C00F096FF002800D17BE7301C70
:10D3F000391C664B644A01F0ABF9002800D172E792
:10D40000012304936D4B04AC6360009A019BA260FE
:10D41000E36043461978256226616761002900D1DF
:10D420007AE05D4A5D4BA261E36102293CD101F0E3
:10D43000CFF821230360236A002B8FD001F0C8F8B6
:10D44000226A02608AE701F0C3F8212303607EE7C5
:10D450000098019900F05EFF0028B6D0301C391CFE
:10D4600000F058FF0028B0D0201C291CFFF7ACFEAC
:10D4700004AC002855D101230493504B2062636013
:10D48000009A019BA260E36043461D7826616761B4
:10D49000002D41D03D493C48021C0B1C01F036FDDB
:10D4A000A061E161022DC2D0201C00F03BFF0028EA
:10D4B000C1D1BCE70098019900F02CFF02940395BC
:10D4C000002800D10FE7301C391C00F023FF029424
:10D4D0000395002800D106E704AC042304932661D9
:10D4E0006761364B636000232362009A019BA26050
:10D4F000E360264B244AA261E36142460023D356EF
:10D50000022B04D0201C00F00DFF002893D101F065
:10D510005FF8222303608EE71C4B1B4AA261E36184
:10D52000C2E703230493254B2661676163604B4682
:10D530002362009A019BA260E36042460023D35617
:10D54000002B3DD1164A174B00980199A261E36167
:10D550000E4B0D4A01F0FCF80028CED0124A134BB6
:10D56000301C391C02F03CF9061C0F1C00F0E4FED4
:10D57000321C3B1C01F0E6F80028BED10C4A0D4BD2
:10D58000A261E361B9E7C0460000000000000000AE
:10D59000000000000000F03F000000000000F0FF6D
:10D5A000000000E0FFFFEF47000000000000E03F48
:10D5B000000000E0FFFFEFC7062800202010020057
:10D5C000104B0F4A00980199A261E3610E4A0F4B7C
:10D5D00001F0BEF8002890D00D4A0E4B301C391CCB
:10D5E00002F0FEF8061C0F1C00F0A6FE321C3B1CCD
:10D5F00001F0A8F8002800D07FE7074A074B7AE738
:10D60000000000000000F07F0000000000000000AB
:10D61000000000000000E03F000000000000F0FFFC
:10D62000F0B55F4656464D464446F0B499464B46E3
:10D630005C00934664088FB00D1C0F1C5A46211CD9
:10D640000090061C824602935846114337D0690069
:10D65000490888466849049588452BDC28D06649E6
:10D660008C4227DC00D180E0002108910499002938
:10D6700000DA7EE0002833D15F4B9C4200D196E077
:10D680005E4B9C426AD002988023DB05984201D110
:10D6900000F0E1FB5A4B0299994221D1049A002AE9
:10D6A0001EDB291C009800F04BFD061C0D1C08E039
:10D6B000002ED4D0534A131C434433430AD14F4D58
:10D6C0000026301C291C0FB03CBC90469946A2464F
:10D6D000AB46F0BD4C4800F027FE061C0D1CF0E7E1
:10D6E0000098291C00F012FE534606908C46002B31
:10D6F00020D0FB0F013B0493049E089B33436AD068
:10D70000424B9C4200DC8DE0414B9C4201DC00F02E
:10D7100035FC404B984500DC89E3029E002E00DC7E
:10D7200089E334493248021C0B1C02F059F8061CEC
:10D730000D1CC6E74046002804D0304BBA009208C2
:10D740009A42D6D1029C002C01DA00F0C4FB049E60
:10D75000002E00DA73E3069E6546B2E7029C002CB9
:10D7600001DA00F076FC009EABE7002800D17BE7F1
:10D77000A0E729498C422BDC26498C4200DC79E762
:10D7800021158C4625498C4501DC00F086FC244B94
:10D7900061465B1A111CD9400A1C9A40824200D093
:10D7A00068E701220A4002239B1A089362E7154AA0
:10D7B000131C4344334300D181E7164B984500DCEA
:10D7C0007FE3029C002C00DA35E35E464D4678E7A5
:10D7D000022108914EE70098009A291C2B1C02F0A8
:10D7E0008FFA021C0B1C01F091FB061C0D1C68E754
:10D7F0009C7500883CE4377E0000F07F0000F03F1D
:10D800000000E03F000010C0581002000000E0419E
:10D810000000F043FFFFEF3FFFFF3F431304000012
:10D8200033040000E24A0023904509DC0698C54B0A
:10D83000C34A614601F0D4FF3523069088465B4217
:10D840004046DC4902155218D21892460303DA4DBD
:10D85000DA4A1B0B1D43934201DC00F0F6FBD84A69
:10D86000934201DC00F036FCD64B01229244ED18C5
:10D8700000240021069A2B1C06920793C900D24B64
:10D8800088464344186859680A900B910A9A0B9B82
:10D890000698079902F034FA0A9A0B9B061C0F1C93
:10D8A0000698079901F016F8021C0B1CA648A74918
:10D8B00001F02CFB0C900D910C9A0D9B301C391C27
:10D8C00001F08EFF029003910B1C802189056D10E1
:10D8D000802000220D430003009201939C4A9D4B3F
:10D8E00029180B1900980199141C1D1C01F078FFD0
:10D8F000021C0B1C301C391C02F002FA0A9A0B9B0A
:10D90000061C0F1C201C291C02F0FAF9021C0B1C1F
:10D910000698079902F0F4F9021C0B1C0098019973
:10D9200001F05EFF021C0B1C301C391C02F0E8F9F0
:10D930000C9A0D9B01F054FF0690079102980399F1
:10D94000021C0B1C01F04CFF041C0D1C221C2B1C88
:10D9500001F046FF804A814B061C0F1C201C291C2D
:10D9600001F03EFF7E4A7F4B00F0B4FF221C2B1CCF
:10D9700001F036FF7C4A7D4B00F0ACFF221C2B1CD3
:10D9800001F02EFF7A4A7B4B00F0A4FF221C2B1CD7
:10D9900001F026FF784A794B00F09CFF221C2B1CDB
:10D9A00001F01EFF764A774B00F094FF021C0B1C1F
:10D9B000301C391C01F014FF029A039B041C0D1C3F
:10D9C0000098019900F086FF069A079B01F008FF76
:10D9D000221C2B1C00F07EFF061C0F1C00980199D6
:10D9E000021C0B1C01F0FCFE674A684B0A900B916D
:10D9F00000F070FF321C3B1C00F06CFF00240D1C7B
:10DA0000221C009801992B1C01F0EAFE221C2B1C01
:10DA1000009001910698079901F0E2FE5A4A5B4B8B
:10DA200006900791201C291C02F06AF90A9A0B9BA8
:10DA300002F066F9021C0B1C301C391C02F060F964
:10DA4000029A039B01F0CCFE021C0B1C069807995E
:10DA500000F040FF061C0F1C321C3B1C0098019973
:10DA600000F038FF4A4A4B4B0024201C0D1C01F0EB
:10DA7000B7FE494A494B06900791201C291C01F02A
:10DA8000AFFE009A019B02900391201C291C02F01A
:10DA900037F9021C0B1C301C391C02F031F9404ACA
:10DAA000404B01F09DFE021C0B1C0298039900F0F4
:10DAB00011FF464B43441A685B6800F00BFF061CDD
:10DAC00050460F1C02F07AFC0D1C4149041C4144D5
:10DAD0000A684B680698079902920393321C3B1C14
:10DAE00000F0F8FE029A039B00F0F4FE221C2B1CAF
:10DAF00000F0F0FE00220B1C00920193101C2B1C66
:10DB0000221C02F0FDF8029A039B02F0F9F8069A33
:10DB1000079B02F0F5F8021C0B1C301C391C02F0AC
:10DB2000EFF802900391089B049C013B234300D033
:10DB3000C2E11D481D49049005914BE0C046C04616
:10DB40000000000000004043000000000000F03F23
:10DB50000000000000000000EF4E454A287ECA3F4A
:10DB600065DBC9934A86CD3F01411DA96074D13F51
:10DB70004D268F515555D53FFFAB6FDBB66DDB3F63
:10DB8000033333333333E33F000000000000084029
:10DB9000000000E009C7EE3FF5015B14E02F3EBE38
:10DBA000FD033ADC09C7EE3F000000000000F0BFB3
:10DBB000FFFF0F0001FCFFFF0000F03F8E98030005
:10DBC00079B60B000000F0FF481002003810020088
:10DBD000281002000026321C4B465846494602F0E7
:10DBE0008FF8009A019B01F0FBFD029A039B041C35
:10DBF0000D1C5846494601F0F3FD021C0B1C201C6D
:10DC0000291C00F067FE009A019B02900391301CD2
:10DC1000494601F0E5FD00900191009A019B0298B0
:10DC2000039900F057FECC4B041C0D1C0F1C8846BA
:10DC3000994200DC19E1C94A8B18034300D012E273
:10DC4000AC4BAB4A0298039900F044FE009A019B4A
:10DC500008900991201C291C02F052F8021C0B1C90
:10DC60000898099900F088FDA946002800D0FAE13B
:10DC70004A46BB4B802411156403C918201C084177
:10DC8000C11948009C4A9D4B0B1C0903B54E090B5A
:10DC9000400D0C43B4498519B44E081A04412E4175
:10DCA0004046B343A146002800DA1EE200980199DD
:10DCB00002F026F800900191009A019B02980399C6
:10DCC00000F008FE4A46120590460024201C8C4AAB
:10DCD0008C4B0D1C0F1C01F083FD009A019B0890DA
:10DCE0000991201C291C02F00BF8021C0B1C029845
:10DCF000039902F005F8844A844B01F071FD844ACF
:10DD0000844B261C0D1C041C391C301C01F068FDC2
:10DD1000021C0B1C201C291C00F0DCFD041C0D1C2B
:10DD2000221C2B1C0898099900F0D4FD089A099B25
:10DD3000061C0F1C01F0E4FF021C0B1C201C291CFC
:10DD400001F0DEFF321C009001913B1C301C391C9D
:10DD500001F046FD704A714B041C0D1C01F040FDA2
:10DD60006F4A704B01F0CCFF221C2B1C01F038FDD8
:10DD70006D4A6E4B00F0AEFD221C2B1C01F030FDF5
:10DD80006B4A6C4B01F0BCFF221C2B1C01F028FDE0
:10DD9000694A6A4B00F09EFD221C2B1C01F020FDFD
:10DDA000021C0B1C301C391C01F0AAFF041C0D1CAA
:10DDB000221C2B1C301C391C01F012FD604A614BE7
:10DDC00002900391201C291C01F09AFF021C0B1CDD
:10DDD0000298039901F09AF8009A019B041C0D1C0B
:10DDE000301C391C01F0FCFC009A019B00F072FD14
:10DDF000021C0B1C201C291C01F082FF321C3B1C46
:10DE000001F07EFF0B1C021C4F48504901F078FFC7
:10DE1000464673181C15002C00DC60E1021C0498B7
:10DE2000059901F0DDFC061C0D1CFFF74AFC029C65
:10DE3000002C00DA75E400260025FFF742FC4C4870
:10DE4000089C031C4344234300D01AE10698614612
:10DE5000069A6346C3E4291C2B1C0098009A01F023
:10DE6000BFFC061C0D1CFFF72CFC4B005B08994601
:10DE7000404B994500DC25E13F480B1823430DD169
:10DE8000009A019B201C01F03BFF021C0B1C029816
:10DE9000039900F067FC002800D1E9E62C4A2D4BDD
:10DEA0000498059901F09CFC294A2A4B01F098FC42
:10DEB000061C0D1CFFF705FC2349244A049105921A
:10DEC00088E6029E002EB6DA80200006051C5E461B
:10DED0004D44FFF7F6FB069A63461B481B4901F0C9
:10DEE00015F806908C46FFF732FCC046C046C04687
:10DEF000FE822B654715973C0000000000000000E3
:10DF000000000000432EE63FEF39FAFE422EE63FC6
:10DF1000396CA80C615C20BED0A4BE726937663E25
:10DF2000F16BD2C541BDBB3E2CDE25AF6A56113F19
:10DF300093BDBE166CC1663F3E5555555555C53F00
:10DF40000000000000000040000000000000F03F62
:10DF500059F3F8C21F6EA501FFFF8F40000070BF8C
:10DF600002FCFFFF01FCFFFF13040000FFFF0F0096
:10DF7000000010C0FFCB904000346F3F6C4B9845C1
:10DF800000DC54E76B4B984501DDFFF7C6FB6146AB
:10DF9000584B574A069801F0B3FE574A574B041C9A
:10DFA0000D1C01F01DFC564A564B061C0F1C201C74
:10DFB000291C01F015FC221C009001912B1C201C37
:10DFC000291C01F00DFC504A504B02900391201C7B
:10DFD000291C01F005FC021C0B1C4D484D4901F0A9
:10DFE0008FFE221C2B1C01F0FBFB021C0B1C4A4861
:10DFF0004A4901F085FE021C0B1C0298039901F0AE
:10E00000EFFB474A474B01F0EBFB021C0B1C00984F
:10E01000019901F075FE041C0D1C221C2B1C301CE8
:10E02000391C00F057FC00220B1C00920193101CBD
:10E030003B1C321C01F064FE021C0B1C201C291C22
:10E0400001F05EFE029003916DE500240021FFF7D0
:10E0500011FC2B1C27492648009A00F057FF061C8C
:10E060000D1CFFF72EFB304A304B0498059901F048
:10E07000B7FB2D4A2D4B01F0B3FB061C0D1CFFF71F
:10E0800020FB089E012E01D0FFF765FB80200006D3
:10E09000051C069E6544FFF714FB002801D0FFF71E
:10E0A0001FFB6346C91A221C0A41101C8840A0426B
:10E0B00001D0FFF7E5FA01231A4002239B1A0893C7
:10E0C000FFF7DEFA1C4B994500DDD1E500239846A9
:10E0D0009946FAE58024E4020121FFF7CBFB4A468A
:10E0E00000F0D6F9021C0B1C99E66442A146DDE55E
:10E0F000000000000000F03F000000604715F73FFF
:10E1000044DF5DF80BAE543E000000000000D03F3D
:10E11000555555555555D53F000000000000E03FCE
:10E12000FE822B654715F73F9C7500883CE4377EDF
:10E13000FEFFEF3F0000F03F0000E03FC046C0465A
:10E14000F0B55F4656464D464446F0B46C4E0D1C45
:10E15000371C83B0041C021C0B1C2F40B74200D19B
:10E16000ADE0002900DC8BE02F1500D194E0654D77
:10E1700009038023090B5B037F190B43FE0700D5BE
:10E1800070E07F10C20FB8465B00002780219B180B
:10E190001624420000970020890345189D4204DCA4
:10E1A00068185B1B009D6D180095D50F5B00013C46
:10E1B0005B1952004908002CEFD180210026090686
:10E1C00020250196B446894609E0834246D0D40F03
:10E1D0005B00013D1B1952004908002D1CD066460A
:10E1E0008C198342F1DD6718E60FBC46F6078246BC
:10E1F0004E452CD01B1AA24280414042019F1B1A5F
:10E20000121B7F18D40F5B00013D019750461B196C
:10E2100052004908002DE2D1134328D10198430848
:10E22000009D394E6A109219ED0702D5802109062A
:10E230000B4340460705B9181C1C0D1C201C291C4B
:10E2400003B03CBC90469946A246AB46F0BDFF0FDA
:10E25000FF077E427E41B2468244CBE79442C2D958
:10E26000181CB4E7C20F5B009B18400089E70199B6
:10E2700001312FD0019C012323401B195B08CFE7FC
:10E280006B005B081A43D9D0002700292BD1C10AA3
:10E29000153F40050029FAD08022520311421ED1B9
:10E2A0000023490001331142FBD001242022E41A4B
:10E2B000D21A3F19041CD4402143984057E7201C30
:10E2C000291C01F08DFA221C2B1C00F003FB041CFE
:10E2D0000D1CB3E7009A002301320092A0E7202230
:10E2E00001240023E5E7221C2B1C201C291C01F023
:10E2F00007FD021C0B1C00F009FE041C0D1C9DE711
:10E300000000F07F01FCFFFF0000E03F4B005908D8
:10E310007047C0464800024B4008C018C00F704705
:10E320000000108000207047024901487047C04635
:10E33000000000000000F87FF0B546464F46C0B42C
:10E34000CA0F90464B004D4A5B0D9E1883B0041CCB
:10E350000D1C8C46071C132E3BDC002E5CDB484F4B
:10E36000021C37413B1C0B400343994648460B1C9B
:10E37000002827D07B081A1C0A4022430027002AC5
:10E380000AD0132E00D176E0291C80229943D202B4
:10E390000B1C324113439C464046C100394863463A
:10E3A00041180C684D683A1C201C291C00F092FA98
:10E3B0000090019100980199221C2B1C01F0A0FCF7
:10E3C000021C0B1C101C191C03B00CBC9046994677
:10E3D000F0BD332E0BDD0B1C8021021CC9008E42C8
:10E3E000F0D1291C00F076FA021C0B1CEAE7264A41
:10E3F0000126D2187642D64091460B1C021C0642DA
:10E40000E0D076080642C7D08023B443DB054846F7
:10E410000341271C1F43BFE74E0076080643021C3A
:10E420000B1C002ECED00903090B014348420143C7
:10E4300080200003090B0140680C40040B1C0343BF
:10E440004046C1000F4841180C684D68291C201C2B
:10E4500000F040FA00900191009801992B1C221CB9
:10E4600001F04EFC0D1C4146021CC807690049081A
:10E47000031C0B43A6E780273F0685E701FCFFFF4F
:10E48000FFFF0F0060100200EDFBFFFF0000000027
:10E49000F8B53D4E171C331C0B40041C0D1C0A1C08
:10E4A0001B1525D14B005B0818431ED0201C291CCE
:10E4B0002E4B2D4A01F094F9344B041C0D1C9F4245
:10E4C00031DB0E4033150A1C363B3149DB198B42D8
:10E4D00015DD221C2B1C2648264900F061F8244A31
:10E4E000244B01F07DF9041C0D1C291C201CF8BDD7
:10E4F00028498B421ED02649DB198B42E9DC002BD0
:10E5000005DD25491B050A401D1C1543EDE7191CB7
:10E51000353118DA214B9F42DBDC17481749221CA2
:10E520002B1C00F03DF8144A144B01F059F9041C5F
:10E530000D1CDAE7201C291C221C2B1C00F0CAF938
:10E54000041C0D1CD1E7144936331B050A401D1C61
:10E550001543201C291C0A4A0A4B01F041F9041CEE
:10E560000D1CC2E7C046C04600000000000050433A
:10E570009C7500883CE4377E59F3F8C21F6EA501F4
:10E58000000000000000903C0000F07FB03CFFFF66
:10E59000FE070000FF070000FFFF0F8050C30000D0
:10E5A00030B5DA0FD2074B005B08111C194330BDA0
:10E5B00038B5051C05480C1C131C002804D002208B
:10E5C000291C221C00E000BF38BDC046000000002E
:10E5D000014B18687047C04668280020084B10B5EA
:10E5E000041C002B02D0002100E000BF054B18687E
:10E5F000836A002B00D09847201CFEF7DDF9C04647
:10E6000000000000D010020070B50E4B0E4D00242B
:10E61000ED1AAD101E1CAC4204D0A300F35898476D
:10E620000134F8E702F0F8FA084B094D0024ED1A1E
:10E63000AD101E1CAC4204D0A300F358984701341F
:10E64000F8E770BD6C2800206C2800206C280020A2
:10E650007C28002010B50023934203D0CC5CC45426
:10E660000133F9E710BD031C8218934202D01970E0
:10E670000133FAE770470023C25C0133002AFBD163
:10E68000581E7047002934D00123002210B488425C
:10E690002CD301242407A14204D2814202D20901D1
:10E6A0001B01F8E7E400A14204D2814202D24900F2
:10E6B0005B00F8E7884201D3401A1A434C08A04295
:10E6C00002D3001B5C0822438C08A04202D3001B2B
:10E6D0009C082243CC08A04202D3001BDC08224342
:10E6E000002803D01B0901D00909E3E7101C10BC66
:10E6F0007047002801D00020C04307B4024802A19F
:10E700004018029003BDC046190000000029F0D057
:10E7100003B5FFF7B9FF0EBC4243891A1847C0463C
:10E720007047C0468446101C62468C46191C6346DE
:10E7300000E0C0461FB500F0D5FF002801D400213D
:10E74000C8421FBD10B500F005FF4042013010BDAA
:10E7500010B500F0C7FF002801DB002010BD01202C
:10E7600010BDC04610B500F0BDFF002801DD00203F
:10E7700010BD012010BDC04610B500F035FF0028C7
:10E7800001DC002010BD012010BDC04610B500F016
:10E790002BFF002801DA002010BD012010BDC0466B
:10E7A000002B11D1002A0FD1002900D1002802D05E
:10E7B0000021C943081C07B4024802A14018029076
:10E7C00003BDC0465DFFFFFF03B4684601B5029874
:10E7D00000F066F8019B9E4602B00CBC7047C04634
:10E7E0009C460304F0B51B0C17043F0C150C1E1CB3
:10E7F000041C000C7E436B4347434543FB18300C1D
:10E800001818874202D980235B02ED18030CED181B
:10E8100063465C434A433604360CA1180004801951
:10E820004919F0BD0000000038B50E4B0C4A041C1D
:10E830000D1CFFF7ABFF002804D1201C291C01F0A0
:10E8400089FD38BD074B064A201C291C01F058FAE7
:10E8500001F080FD80231B06C018F2E7C046C046C9
:10E86000000000000000E041F0B583B0161C1F1C42
:10E870000090019101F032FE041C0D1C221C2B1C87
:10E88000301C391CFFF7ACFF009A019B121A8B4118
:10E890000899201C0A604B60291C03B0F0BDC046DB
:10E8A000F0B583B0141C1D1C0090019101F0F2FF23
:10E8B000221C2B1C061C0F1CFFF792FF009A019BC9
:10E8C000121A8B410899301C0A604B60391C03B046
:10E8D000F0BDC046F8B55F46564644464D46F0B4D6
:10E8E0000C034D00CE0F610A440F2143C4001803EE
:10E8F00080465800400D8246D80F84464046400A64
:10E90000530F0343D0006D0D371C834652466645B6
:10E9100000D19DE0AF1A002F00DC03E1002A38D1BE
:10E92000184300D0E4E0630709D00F232340042BF1
:10E9300005D0231DA342A441644209191C1C0802EE
:10E9400000D478E0CE4B6A1C9A4200D105E1CD4B51
:10E95000E408194048075205490204430B0B520DC5
:10E96000371C002000211B03201C1C0B0B0D1B055A
:10E97000C54D2343520552081D4015436D006D08D7
:10E98000FF07291C39433CBC90469946A246AB463A
:10E99000F8BDBB488542C6D0802000040343382F11
:10E9A00000DDECE01F2F00DD20E12020C01B1A1C41
:10E9B000814682405846F8400243944658464A46AB
:10E9C0009040421E9041FB40624602431F1CA21A27
:10E9D0009442A4416442C91B091B141C0B02A2D51A
:10E9E00049024F0A002F00D1C4E0381C01F058FD45
:10E9F000021C083A1F2A00DDB7E02821091A201C52
:10EA00009740C84007439440954200DDA9E0551B5C
:10EA1000691C1F2900DDD8E01F22551B3B1C221C4E
:10EA2000AB40CA40AC40651EAC411343CF401C43D1
:10EA3000391C002577E74807E4086A05C908520D24
:10EA4000371C04438E4B9D4248D009030B0B88E7CB
:10EA5000AA1A9446002A00DC98E05046002853D0B9
:10EA60008748854200D15EE7802000040343624668
:10EA7000382A00DDFDE01F2A00DD4BE12022604640
:10EA8000101A1A1C82408246914658466246D0406F
:10EA90004A4602439046584652469040421E904194
:10EAA000424602436046C3401219A242A441644256
:10EAB00059180919141C080200D434E7704B0135A9
:10EAC0009D4200D124E16F4B60081940012323408F
:10EAD0001C1C0443CB071C43490824E70B1C23439D
:10EAE00000D1C7E180231B030B431B031B0B38E73B
:10EAF000013F002F64D15846221A9442A441644237
:10EB0000C91A091B141C69E75846184300D10AE7C3
:10EB10000122524294446046002800D0C5E0584685
:10EB20000219C2E7002F72D1681C4005400D012870
:10EB300000DCDEE05A46A21A9442BF41C81A7F4266
:10EB4000C71B380200D488E05A46141BA3459241E3
:10EB5000591A52428F1A664644E7371C0023002494
:10EB6000FFE64849AD1A3940DDE6271C28388740C2
:10EB7000002449E7201C01F093FC203038E75A4676
:10EB80001A43531E9A41D2B2002720E7002A00D030
:10EB9000DDE0681C4205520D012A00DC8EE0384D94
:10EBA000A84200D1B3E05D462A19A242A4416442C2
:10EBB00059180919CC07520814434908051CB2E634
:10EBC0002F48854200D0EAE6ADE62B1C1F3B3A1CDD
:10EBD000DA40131C20296DD03F22551BAF403C4327
:10EBE000601E84411C43002100259CE6381C20380F
:10EBF0001A1CC240101C202F5ED04022D71BBB40E5
:10EC00005A461A43531E9A4102430027DFE6002D5D
:10EC10003CD01B4DAA4500D194E080252D047F42B5
:10EC20002943382F00DDADE01F2F00DD2CE120252A
:10EC3000ED1B081C261CA840FE40AC400643651E88
:10EC4000AC413443F9405D462C1BA34592415B1A0D
:10EC50005242991A55466646C0E6131C3B43141CA3
:10EC6000002B00D0BEE60027002200250021002452
:10EC7000E8E65A461A43531E9A41D2B2002313E7DC
:10EC8000FF070000FFFF7FFFFFFF0F800D1C2543E4
:10EC900058D0FF43002F51D1041BA3459241591A6C
:10ECA0005242891A5546664698E69648854200D0F3
:10ECB000DDE638E6002792E70023A1E7081C2043A1
:10ECC000002D00D0C0E0002800D1FBE058461843DA
:10ECD00000D128E658460219A242A44164425918BC
:10ECE0000919141C0A0200D41DE6874B012519409E
:10ECF00019E6081C2043002D39D100286DD1594652
:10ED0000194300D1BDE0191C5C4666460BE6051CA4
:10ED10002A1CABE7604620381A1CC2406046914668
:10ED2000202800D1ABE04022121A93405A461A43E1
:10ED3000531E9A414B461A430023B5E6714DAA452E
:10ED400000D06EE7191C5C4655466646EBE5002D83
:10ED50001ED10D1C254373D0D543002D6DD15C44CD
:10ED60005C4592415918524289185546A3E600283D
:10ED700049D15946194300D196E0191C5C466646B4
:10ED8000604DD0E50C43611E8C41E4B200215AE78E
:10ED90005C4DAA4554D05542802210040143382DC1
:10EDA00000DD85E01F2D00DD95E02022501B0A1CB0
:10EDB00084468240201CE8400243904662469440CC
:10EDC000601E844142461443E9405C445C459241E4
:10EDD000CB185242991855466DE65846184300D153
:10EDE000A1E55846271ABC429241C81A5242801ADD
:10EDF00002026AD55846041BA3459241591A524251
:10EE0000891A66468FE55846184336D04807E40805
:10EE100004438020C9080003014208D0DD080542F0
:10EE200005D15946CA085C071443291C6646630F7E
:10EE3000C9001943E400334D75E5324A9245AED11D
:10EE4000191C5C4655466EE5002837D058461843D5
:10EE500013D080254807E408C9082D03044329423C
:10EE6000E5D0D8082842E2D15D46EA085C071443A1
:10EE7000011CDCE70023002473E5224D53E5002349
:10EE800054E700270022F1E63D1C203D0A1CEA4021
:10EE9000151C202F31D04026F71BB9400C43611EB2
:10EEA0008C412C430021CEE6164A0027151CDDE6D6
:10EEB0000C43611E8C41E4B2002186E7191C5C46BC
:10EEC000104D30E5191C5C462DE5031C3B43D8D0A2
:10EED000011C3C1C27E52020404240190A1CC2406E
:10EEE0009046202D0BD04020451BA9400C43611EAD
:10EEF0008C4145462C43002167E70021CEE70021E5
:10EF0000F4E7C046FF070000FFFF7FFFF0B556465D
:10EF100044465F464D46F0B41F1C0B031B0B98463E
:10EF20004B0087B0041C81465B0DC80F161C9A4627
:10EF30000090002B51D06A4B9A4531D08022414637
:10EF400052030A43630FD2001A43664B90460025D2
:10EF5000E20091469A44002402953B031B0B9B461A
:10EF6000FD0F7B00311C5B0D019560D05C4A934224
:10EF700054D08021584649030143720FC900114300
:10EF8000584A8B469B18F1000020009A04436A40BF
:10EF900003920F2C00D9ADE0534EA4003459A7467C
:10EFA000404604436ED10021022508248846894644
:10EFB0000295D2E7009C0298C34649460194022874
:10EFC00064D0032800D1ABE2012800D038E2019AD6
:10EFD000002402400025A14660E0434623434AD076
:10EFE0004046002800D1C0E101F05AFA031E272B49
:10EFF00000DDB3E128210D1A211C083B4246E940FF
:10F000009A400D1C1543221C9A40A8469146374B46
:10F0100000251B1A9A46002402959EE75A4616437D
:10F020000320002EB1D1B34600210220ADE75A469D
:10F0300032431BD05B46002B00D18AE1584601F0D9
:10F040002FFA272800DD7DE12822171A011C321C27
:10F0500008395B46FA408B40171C1F43331C8B401A
:10F06000BB46191C214B1B1A00208EE70027BB460C
:10F070000021012089E700200125042480468146E3
:10F0800002956AE703250C24029566E7019C039428
:10F09000039D01222A400024114DA1460020002199
:10F0A0002403260B0C0D2405114B34432D0523405E
:10F0B0002B435B005B08D207191C4846114307B07D
:10F0C0003CBC90469946A246AB46F0BD0022802447
:10F0D00024039146024DE1E700240025A146DDE727
:10F0E000FF07000001FCFFFFD41002000DFCFFFF32
:10F0F000FFFF0F805546ED1A0495D84500D953E11E
:10F1000000D14EE1049C0025013C4E460494474644
:10F11000A946584603020C0E1C430902250C230481
:10F120001B0C0091381C291C0193FFF7ABFA0199C5
:10F1300083464143381C8A46291CFFF7E7FA330C03
:10F14000090419438A450CD95B460919013B8C42D5
:10F1500000D947E18A4500D844E102225242934453
:10F1600009195346CB1A181C291C9846FFF78AFA2E
:10F17000071C0198291C784382464046FFF7C6FACF
:10F1800036040B04360C33439A4509D91B197A1EF1
:10F190009C4200D924E19A4500D821E1023F1B1985
:10F1A0005E4632041743380CBB46009E009F514612
:10F1B0003F0C32045B1A5946BA46120C0F043F0C3E
:10F1C000904651467A434F43414641435646704329
:10F1D000CF19160CBE19B14202D980277F02C0197F
:10F1E000310C12043604120C4018B618834200D2B7
:10F1F000C4E000D1BEE0191A4846861BB145BF41A4
:10F200007F42CF1BA74200D113E1291C381CFFF716
:10F2100039FA019902904143381C8946291CFFF7AD
:10F2200075FA330C0904194389450CD9029B091955
:10F23000013B8C4200D9FFE0894500D8FCE0029FE9
:10F240000919023F02974F46CF1B381C291C05970E
:10F25000FFF718FA071C0198291C78438146059886
:10F26000FFF754FA36040904360C0E43B14509D9A8
:10F2700036197B1EB44200D9E0E0B14500D8DDE08C
:10F28000023F3619029D4946761A290439430B0478
:10F2900057460A0C1B0C40464546584355437B4392
:10F2A0007A43EB18070CDB199D4202D980256D02C9
:10F2B00052191D0C00041B04000C52191B18964215
:10F2C00035D300D1FCE001231943049E994FF51971
:10F2D000002D00DCA1E0480709D00F230B40042BD0
:10F2E00005D00B1D8B42894149428B44191C5A465B
:10F2F000D20107D5904B5C46049E80271C40FF003E
:10F30000A346F5198D4B9D427ADD039C01222240D4
:10F3100000248B4DA146C1E68024240347462742A2
:10F320004CD13C432403240B009A854DB6E6361994
:10F33000481EB4425ED9011C9642C4D1009E9E4232
:10F34000C1D1C2E7031C283B311C99408B460021E8
:10F3500088E6301C01F0A4F8203072E6283B211C1E
:10F36000994000228846914651E6201C01F098F809
:10F3700020303BE60021B14500D33DE7009F5A46CF
:10F38000B944B945BF417F423F19FB18013A9C423D
:10F390001ED2984200D97EE000D1B5E0191A9346FA
:10F3A0002AE7894500D8ADE64846464642467708F2
:10F3B000D3074608C0071E438146AAE658462042A6
:10F3C00012D1044324032A1C240B89465C4D65E6B4
:10F3D000A342E3D1009F4F45DBD9211A93460BE7A7
:10F3E000171CDDE69B46BCE63C432403240B009A35
:10F3F000534D53E6B24259D800D18AE0011C62E76E
:10F400005F46C9087B07039E0B437C026D05012202
:10F410009946240B6D0D324040E64A4B049FDB1B9E
:10F42000382B10DD039C0122224000240025A14638
:10F4300034E60121494248E7029304E71F1C21E713
:10F44000019C039441E71F2B40DC3F48049F0C1CA8
:10F450003A1858469140DC40904020430A1C511E07
:10F460008A41011C11435A46DA40131C480709D04F
:10F470000F220A40042A05D00A1D8A4289414942C6
:10F480005B18111C1A0234D5039C0122224000246F
:10F490000125A14602E6009F02214942B9448B445E
:10F4A000B945894149420919CB18A4E6009D881E37
:10F4B0006900A942AD416D422C19361900913AE715
:10F4C000002B00D033E70024009437E71F4A049C48
:10F4D0005D46121BD5402A1C202B1FD01C4E5F46B8
:10F4E000A3199F403B1C19434B1E99411143002314
:10F4F000BCE75A07C9080A43039F91465B020122F1
:10F500001C0B3A400025C9E54E45C4D8934600215E
:10F5100072E6009F9F42C9D3011C0FE70023E2E778
:10F52000802424035F463C432403240B019A89462C
:10F53000034DB3E5FF030000FFFFFFFEFE070000E1
:10F54000FF07000002FCFFFF1E040000E2FBFFFFBC
:10F550003E040000F0B55F4656464D464446F0B4C2
:10F560000D1C041C8046E80F814618030F03000B96
:10F570003F0B83B084461B48009749005E00DF0FB5
:10F58000490D9246760DBB4681420CD01548864205
:10F5900010D00120B14215D003B03CBC9046994632
:10F5A000A246AB46F0BD009F01202743F4D10D4891
:10F5B0008642EED1604602430120002AECD10120B0
:10F5C000B142E9D1009B6345E6D1D045E4D1D945AC
:10F5D00006D00029E0D11C43201C441EA041DBE7DB
:10F5E0000020D9E7FF070000F0B55F4656464D46BC
:10F5F0004446F0B4CD0FDE0FAC461D032D0BB146D3
:10F60000374E0F034C00AB465D0080463F0B640D48
:10F6100092466D0DB44232D0314EB54235D0002CF9
:10F620000ED1384341424141081C002D0BD0002926
:10F6300019D1CC452DD0654668420123184318E006
:10F64000002DF6D1281C59460A4353425341002845
:10F6500006D1002BEDD0634658420123184308E041
:10F660000020002B05D14A46504250414042012320
:10F6700018433CBC90469946A246AB46F0BD3E1CA2
:10F680000643C9D002204042F3E75E461643C6D087
:10F69000F8E7AC4207DC0BDA614648424841404299
:10F6A00001231843E5E76646704201231843E0E76B
:10F6B0005F450AD80ED000205F45DAD26546684221
:10F6C0006841404201231843D3E762465042012378
:10F6D0001843CEE7D045F8D80020D045EED3C8E790
:10F6E000FF070000F0B556464D4644465F46F0B46D
:10F6F0000D1C83B0041C0190E80F814618030F0312
:10F70000000B3F0B84463548009749005E00DF0F31
:10F71000490D9246760DB846814234D02F48864234
:10F7200036D0002918D0002E1FD1341C67463A432A
:10F7300053425341002C1FD00020002B05D14246DC
:10F740005042504140420123184303B03CBC904614
:10F750009946A246AB46F0BD009804436042604122
:10F76000041C002EE2D00028E9D1C14515D04F4637
:10F77000784201231843E8E7002BF6D04B46584265
:10F7800001231843E1E7009F02202743DDD1C5E7AD
:10F79000674602201743D8D1C3E7B14204DD4A4689
:10F7A000504201231843D0E7B14207DB009860457F
:10F7B000E4D80AD0009F00206745C6D24F46784261
:10F7C0007841404201231843BFE7019A5245D5D8FA
:10F7D000019A00205245F1D3B7E7C046FF07000069
:10F7E000F0B5564644465F464D46F0B41F1C0B0329
:10F7F0001B0B9A464B0087B0041C80465B0DC80F5C
:10F80000161C02938146002B68D0694B02999942DD
:10F8100032D08022534652031A43D200630F1A4358
:10F820009246644AE000891880460291002400252F
:10F830003B031B0B9B467800FB0F321C400D0393D0
:10F8400000D175E05A4B984269D080225946520344
:10F850000A43730FD2001A43564B9346C018F20066
:10F86000002303994E4671401C430F2C00D9A9E098
:10F87000514EA4003459A74653461C4300D087E09C
:10F880000025AA46A84608240225D1E74946022DAC
:10F890006CD0032D00D117E2012D00D058E10D40AE
:10F8A000EDB20024A9460023A04600200021250334
:10F8B0000A0D1C052D0B1205404B2A431340234310
:10F8C0005B004C465B08E207191C4046114307B039
:10F8D0003CBC90469946A246AB46F0BD53462343F6
:10F8E00050D05346002B00D184E1504600F0D8FDA3
:10F8F000031E272B00DD76E128210D1A211C083B71
:10F900005246E9409A400D1C1543221C9A40AA46D3
:10F9100090462B4B00241B1A0293002588E75B4678
:10F920001E430323002E9CD1B3460022022398E7F6
:10F930005B46334321D05846002800D14EE100F009
:10F94000AFFD272800DD42E128210F1A021C311CDF
:10F95000083A5B46F94093400F1C1F43331C934009
:10F96000BB461A1C164B181A00237AE701230B40DA
:10F9700000249946A0460E4B97E70027BB4600227D
:10F9800001236EE7002104248A46884601254FE7BB
:10F990000C2403254CE700258024A9462403A8460F
:10F9A000034B82E7DA46904603991D1C6FE7C04679
:10F9B000FF07000001FCFFFF14110200FFFF0F8092
:10F9C0000DFCFFFF029F160C381804904046070CF0
:10F9D0000004000C1204120C031C5343041C3D1CB5
:10F9E0007443554398463B1C73436419A4464446EC
:10F9F0000293230C63449D4204D9029D8024640237
:10FA00002D1902951D0C039545462C041B04240C4E
:10FA10001C1905945C46230C051C58432404240C33
:10FA20008446381C604365435F438146CC44280CC0
:10FA30006044BB46814502D980277F02BB442D0428
:10FA4000070C2D0C000440195546BC462F04E34416
:10FA50008446280C3D0C2F1C5743B8462F1C774377
:10FA60004243B94647463F0C9144BA46D1444643C7
:10FA70004A4502D980225202B6184F463A0CB618AF
:10FA80003A0447463F043F0CB8462F1C67435D438A
:10FA90004443584365190190380C2D184244B84628
:10FAA000AC4204D9019880235B02C0180190039CEA
:10FAB000029F201C6044C0196045A441474664422F
:10FAC000A4462B043C049946240C4C44A046D8443C
:10FAD0008018C246E24490429241574652429146B3
:10FAE000F219E245BF417F424B46BC46D845BF4173
:10FAF000D4187F4263461F432D0C7F19B2429241B6
:10FB00004C45AD4152426D421543019E7D19AB19E2
:10FB1000E20D5B02059F134342023A439A46531E8D
:10FB20009A41C30D101C184364022043804650467E
:10FB3000C0010DD5454601225646049C6B082A405B
:10FB40001A43F30701341A43760804949046B246E8
:10FB5000049E634FF319002B61DD404640070BD034
:10FB60000F2244462240042A06D04246043242452F
:10FB700080414042824490465546ED0107D5594B9D
:10FB80005646049F80201E40C000B2463B18564A8D
:10FB9000934200DDEAE644465546E2086807104312
:10FBA00001226C025B050A408046240B5B0D9146E6
:10FBB0007BE6DA4690461D1C69E6802424035746FE
:10FBC00027421CD13C432403240B484B6DE6031C05
:10FBD000283B311C99408B460022C3E6301C00F0C4
:10FBE0005FFC2030ADE6283B211C994000228A466C
:10FBF00090468EE6201C00F053FC203078E65846F4
:10FC0000204207D1044303992403240B89469046DC
:10FC1000364B4AE63C432403240B344B45E6344B35
:10FC2000049E9B1B382B06DD01230B4000249946C4
:10FC3000A046002339E61F2B25DC049C2D4D4646AB
:10FC40006019524644468640DC4082405746301C8C
:10FC50002243DF40441EA04102433B1C540709D00D
:10FC60000F201040042805D0101D904292415242AE
:10FC70009B18021C1D021AD501230B400024994633
:10FC8000A046012311E61C48049C5546001BC540B4
:10FC9000281C202B16D0194E5746A21997403A1C03
:10FCA00043461A43531E9A4102430023D6E758079E
:10FCB0005B02D2081C0B01230B401043994680467F
:10FCC0000023F2E50022EBE78024240350460123C1
:10FCD000044319402403240B8946044BE5E5C04640
:10FCE000FF030000FFFFFFFEFE070000FF0700000C
:10FCF00002FCFFFF1E040000E2FBFFFF3E040000C9
:10FD0000F8B55F46564644464D46F0B40C034D00E8
:10FD1000CF0F610A440F2143C4001803DE0F804651
:10FD2000B44646465800760A530F3343D600C94AB4
:10FD30006D0DBA46400DB346904200D1EBE06246ED
:10FD4000012672409446674500D1A1E02F1A002F8A
:10FD500000DC08E100283BD15846184300D0E8E019
:10FD6000600709D00F232340042B05D0231DA34295
:10FD7000A441644209191C1C0A0200D479E0B54B65
:10FD80006A1C9A4200D109E1B34BE40819404807C4
:10FD9000044349025205012750460B0B520D074000
:10FDA000002000211B03201C1C0B0B0D1B05AB4D61
:10FDB0002343520552081D4015436D006D08FF078F
:10FDC000291C39433CBC90469946A246AB46F8BD37
:10FDD000A0488542C4D0802000040343382F00DDB2
:10FDE000F0E01F2F00DD24E12020C01B1A1C5E461E
:10FDF0008240FE40324394465A468240101C421EC6
:10FE00009041FB40624602431F1CA21A9442A44147
:10FE10006442C91B091B141C0A02A1D549024F0ADE
:10FE2000002F00D1C9E0381C00F03AFB021C083A50
:10FE30001F2A00DDBCE02821231C091A9740CB4073
:10FE40001F439440954200DDAEE0551B691C1F29FD
:10FE500000DDDDE01F22551B3B1C221CAB40CA40CD
:10FE6000AC40651EAC411343CF401C43391C0025F8
:10FE700076E74807E4086A0501275646C908520D87
:10FE800037400443734B9D4249D009030B0B87E76E
:10FE90002A1A9446002A00DC9BE0002855D06D48C1
:10FEA000854200D15CE78020000403436046382887
:10FEB00000DD09E11F2800DD50E162462020801AA4
:10FEC0001E1C8640B1465E46D6404A4632435E46D8
:10FED00086409046301C421E904142460243604696
:10FEE000C3401219A242A441644259180919141CB2
:10FEF000080200D434E7574B01359D4200D142E15E
:10FF0000554B60081940012323401C1C0443CB07B8
:10FF10001C43490824E71E4300D014E70FE70B1CDD
:10FF2000234300D1CFE180231B030B431B031B0B97
:10FF300036E7013F002F66D15E46A21B9442A441E2
:10FF40006442C91A091B141C66E75846184300D1BD
:10FF500006E701267642B4446046002800D0CAE095
:10FF60005E463219BEE7002F7AD1681C4005400D6D
:10FF7000012800DCE3E05A46A21A9442BF41C81AA5
:10FF80007F42C71B3E0200D492E05846041BA345A3
:10FF90009241591A52428F1AE24641E753460127CD
:10FFA0001F4000240023FBE62B49AD1A3940D7E659
:10FFB000271C28388740002444E7201C00F070FAF2
:10FFC000203033E75A461A43531E9A41D2B20027D3
:10FFD0001BE7002A00D0E1E0681C4605760D012EE3
:10FFE00000DC91E01B4DA84200D1F7E05E463219DB
:10FFF000A242A441644259180919CC07520814437B
:020000022000DC
:100000004908051CACE61348854200D0E6E6A7E6A1
:100010002B1C1F3B3E1CDE40331C202970D03F228E
:10002000551BAF403C43601E84411C43002100250A
:1000300096E6381C20381E1CC640301C202F61D08C
:100040004022D71BBB405A461A43531E9A410243D3
:100050000027DAE6FF070000FFFF7FFFFFFF0F80AA
:10006000002D38D0B94DA84200D192E080252D0452
:100070007F422943382F00DDAAE01F2F00DD2CE14D
:100080002025ED1B0E1CAE40B046261CFE4042460D
:10009000AC401643651EAC413443F9405A46141B2C
:1000A000A34592415B1A5242991A051CE246B3E6F7
:1000B000131C3B43141C002B00D0B1E60027002288
:1000C000002500210024DDE65A461A43531E9A41BA
:1000D000D2B2002305E70D1C25435AD0FF43002F61
:1000E00053D15A46141BA3459241591A5242891AB8
:1000F000051CE24690E69548854200D0D6E62FE6FC
:1001000000278FE700239EE7081C2043002D00D026
:10011000C3E0002800D1F6E05846184300D11FE69E
:1001200058460219A242A441644259180919141CE4
:100130000A0200D414E6864B0125194010E6081C7B
:100140002043002D3AD1002800D089E059461943B8
:1001500000D1BFE0191C5C46E24601E6604620384B
:100160001A1CC2406646101C202E00D1B0E040226E
:10017000921B93405A461A43531E9A41024300234E
:10018000AFE6724D00272A1C9BE7704DA84200D0B5
:1001900070E7191C5C46051CE246E1E5002D20D104
:1001A0000D1C254375D0D543002D6FD15C445C45B3
:1001B0009241591852428918051C99E6002835D1F8
:1001C00059461943DDD0191C5C46E2465F4DC7E530
:1001D0000C43611E8C41E4B200215FE7051C021C48
:1001E0006FE75A4DA84254D055428022160431433D
:1001F000382D00DD81E01F2D00DD91E02022561B0F
:100200000A1CB446B240261CEE4032439046624679
:100210009440661EB44142461443E9405C445C4548
:100220009241CB1852429918051C61E65846184372
:100230004CD04807E40804438020C9080003014269
:1002400008D0DD08054205D15946CA085C071443A9
:10025000291CE246630FC9001943E4003B4D7FE5CA
:100260005846184300D17BE55E46A71BBC4292412D
:10027000C81A5242801A06024CD55846041BA345A0
:100280009241591A5242891AE24669E52F4A904230
:10029000AED1191C5C46051C62E5002836D05846D4
:1002A000184313D080254807E408C9082D030443E8
:1002B0002942CFD0D8082842CCD15D46EA085C0755
:1002C0001443011CC6E70023002469E51F4D47E5E0
:1002D00000234FE700270022F3E63D1C203D0E1CC3
:1002E000EE40351C202F2DD04026F71BB9400C4383
:1002F000611E8C412C430021D0E60C43611E8C41D1
:10030000E4B200218AE7191C5C4629E5191C5C4609
:100310000E4D25E5031C3B43DCD0011C3C1C1FE5B6
:100320002026764276190A1CF2409046202D0BD0EA
:100330004026751BA9400C43611E8C4145462C4349
:1003400000216BE70021D2E70021F4E7FF0700005E
:10035000FFFF7FFF70B50B1C124C09030E0B5900F9
:10036000021C490DDD0F0020A14211DD0E48814223
:100370000FDC8020400306430C48401A1F280BDD89
:100380000B4A521AD640321C5042002D00D1101C8C
:1003900070BD084BE818FBE7074BC240C9188E40F8
:1003A0003243F1E7FE0300001D04000033040000A7
:1003B00013040000FFFFFF7FEDFBFFFFF8B5041EF5
:1003C00031D0C70F00D04442201C00F069F8184D0E
:1003D0002D1A0A2819DD0B38844024036D05240BDF
:1003E0006D0D3A1C0026002000210B0D2403240B68
:1003F0001B0523430F4C2D051C402C43640064084F
:10040000D307211C301C1943F8BD061C1536231CCC
:10041000B3401E1C0B23181AC44024036D05240B83
:100420006D0D3A1CDFE70022002500240026DAE7E4
:100430001E040000FFFF0F8010B5041E28D000F03E
:100440002FF8154A121A0A2815DD0B3884402403A8
:100450005205240B520D0023002000212403181CF8
:100460000B0D240B1B0523430C4C12051C4014439D
:100470006400610810BD031C1533211C99400B1C3E
:100480000B21081AC44024035205240B520DE3E744
:10049000002200240023DFE71E040000FFFF0F807E
:1004A0001C2101231B04984201D3000C10391B0AA4
:1004B000984201D3000A08391B09984201D3000968
:1004C000043902A2105C40187047C04604030202BF
:1004D000010101010000000000000000F0B54446E9
:1004E0005F4656464D46F0B41C1C85B0002900DA24
:1004F000DBE00F1C0021061C8A46101C191C002C76
:1005000000DAC9E00196009089468046002951D161
:10051000B84200D871E0FFF7C3FF002809D02023BC
:100520004546311C1B1A85408740D940A8460F43D9
:1005300086404246150C13041B0C291C381C9B4694
:10054000FEF7A0F85B464343041C291C381C99465F
:10055000FEF7DCF8330C08041843814509D9404400
:10056000631E804500D978E1814500D875E1023CE1
:1005700040444946411A8946081C291CFEF782F866
:100580005A464243071C291C48469346FEF7BEF8CC
:1005900036040904360C0E43B34507D946447B1E86
:1005A000B04502D8023FB34500D81F1C240427439E
:1005B000002403E0B94211D9002400275246381C18
:1005C000211C002A03D03B1C00215842A14105B048
:1005D0003CBC90469946A246AB46F0BD081CFFF7CE
:1005E0005FFF041E00D0BFE0B94500D242E1019D8B
:1005F0000099071C8D424741E0E7002804D1012003
:100600000021FEF73FF880464046FFF749FF0028EB
:1006100052D1414644460B043C1B1B0CA3460D0C17
:1006200000930124291C5846FEF72CF8009F8146B0
:100630004743291C5846FEF769F8330C090419434F
:100640008F4208D94B464144013B884502D88F422E
:1006500000D91AE19946C91B8B46081C291CFEF7D4
:1006600011F8009B291C4343071C58460093FEF7D2
:100670004DF83604009D0904360C0E43B54207D9E7
:1006800046447B1EB04502D8023FB54200D81F1C2D
:1006900049460E04374391E75246D243031C0C1CD3
:1006A000924600215842A1412CE7002746428F4143
:1006B000012149428A4620E720231B1A4246351C65
:1006C00082403C1CDD40DC4087402B1C150C3B432A
:1006D000291C8640201C009317049046FDF7D2FF8A
:1006E0003F0C011C794381468B46201C291CFEF7D8
:1006F0000DF8009C0904230C19438B450CD94B467B
:100700004144013B884500D9BDE08B4500D8BAE0A3
:1007100002225242914441445C460C1B201C291C7D
:100720000194FDF7AFFF391C4143041C8B4601982F
:10073000291CFDF7EBFF009A090413041B0C194355
:100740008B4509D94144631E884500D997E08B4504
:1007500000D894E0023C41445B46CB1A49469B4694
:100760000B041C4300975DE7009D20231B1A4A469B
:100770008240DD401543391C009AD94082408846AA
:10078000311C0092D9403A1C82400B1C1343019348
:100790002F0C2B041B0C391C40460293FDF772FFF3
:1007A000029A81464243391C40469346FDF7AEFF0C
:1007B000019A0904130C19438B450AD94B46491970
:1007C000013B8D425DD88B455BD902235B42994446
:1007D00049195A468A1A101C391C0392FDF752FF18
:1007E000029B80464343391C03989B46FDF78EFFCE
:1007F000019A090413041B0C19438B450AD943467B
:100800004919013B8D4238D88B4536D902235B42CA
:10081000984449195D464D1BAB464946009D0F045F
:10082000424617432A04120C3B042D0C1B0C380CB7
:10083000111C594342436B436843D3180D0C5B1999
:100840008C469A4202D98022520280181D0C40190F
:1008500083450CD303D00024B0E61C1C89E6654612
:100860002A041B04120C9B18A6409E42F3D2013F9F
:100870000024A3E600240127A0E69846CAE71C1C32
:100880006AE79946A5E7994646E702225242914413
:100890004144E0E6F0B55F4656464D464446F0B466
:1008A0000D1C85B0061C9246984602900191039259
:1008B0001F1C141C8346A946002B59D1AA4269D992
:1008C000101CFFF7EDFD00280AD020231B1A311C55
:1008D000D94085400B1C2B43864084409946B34643
:1008E000250C23041B0C291C48469846FDF7CAFE1C
:1008F0004646071C4643291C4846FDF707FF5A4653
:100900000904130C19438E4209D909197B1E8C4224
:1009100000D957E18E4200D854E1023F0919891BE2
:100920008946081C291CFDF7ADFE43464343061CBF
:10093000291C48469846FDF7E9FE5A461304090467
:100940001B0C1943884508D90919731E8C4200D91C
:1009500036E1023E884500D832E1380430430027B2
:10096000391C05B03CBC90469946A246AB46F0BD4A
:10097000019A934262D8181CFFF792FD041E60D1C1
:10098000019B9F4200D22CE1029F03998F4260415C
:100990000027E5E7002A04D101200021FDF772FEBF
:1009A000041C201CFFF77CFD002800D0B9E02304C4
:1009B0002D1B1B0CA946260C98460127311C4846C6
:1009C000FDF760FE41464143051C8A464846311CFE
:1009D000FDF79CFE5A460804130C1843824507D9BC
:1009E00000196B1E844202D8824500D910E11D1CFB
:1009F0005346C31A181C311C9A46FDF743FE414664
:100A00004143814688465046311CFDF77FFE5A46D9
:100A1000130409041B0C194388450BD94B460919CB
:100A2000013B8C4200D9CFE0884500D8CCE00223BE
:100A30005B42994428044946084391E70027002077
:100A40008EE720231B1A424657468240DF40174359
:100A5000524682400192321CDA40291CD94085401E
:100A6000131C2B4302933D0C3B041B0C8846081CB3
:100A7000291C9A46FDF706FE534643438146291C2E
:100A800040469B46FDF742FE029A0904130C1943A7
:100A90008B4506D94B46C919013B8F4200D8ABE0C4
:100AA00099465A468A1A101C291C9346FDF7EAFDFE
:100AB00053464343291C804658469A46FDF726FE76
:100AC000029A090415042D0C29438A4506D9434688
:100AD000C919013B8F4200D886E098465746CF1B84
:100AE000BA464946019F0804424610433D042D0C76
:100AF00003043F0C1B0C020C291C594355437B4338
:100B00007A43EB180F0CDB198C469D4202D98027E3
:100B10007F02D2191D0C521992455FD356D000277F
:100B20001EE720231B1A311C2F1CD940DF408540B3
:100B30000B1C84402B4386400193B3462304260CB0
:100B40001B0C381C311C9846FDF79CFD4246424365
:100B5000051C311C381C9146FDF7D8FD019F090486
:100B60003B0C1943894507D909196B1E8C424DD896
:100B700089454BD9023D09194A468A1A101C311C75
:100B80009246FDF77FFD43464343071C311C504608
:100B90009946FDF7BBFD019A090413041B0C194388
:100BA000894507D909197B1E8C422DD889452BD937
:100BB000023F09194B46CB1A2D0499462F43FDE6F7
:100BC0001E1CCAE61F1CAAE6994633E761460A04C2
:100BD0001B04120C9B18A6409E42A0D2013800278D
:100BE000BEE600270120BBE68A4500D875E7022350
:100BF0005B429844C91971E78B4500D850E702233E
:100C00005B429944C9194CE71F1CD3E71D1CB3E78D
:100C1000023D0019ECE6C046F8B5C046F8BC08BC79
:100C20009E467047F8B5C046F8BC08BC9E46704763
:100C30004170706C69636174696F6E207374617266
:100C4000742E2E2E002D2D2D2D0054696D657220D1
:100C50005072657363616C65466163746F723A20AC
:100C60000054696D657220706572696F643A006E38
:100C700072665F70696E20213D202850696E4E615A
:100C80006D65294E4300433A5C55736572735C7A17
:100C9000686F6E675C417070446174615C4C6F6337
:100CA000616C5C41726475696E6F31355C70616353
:100CB0006B616765735C526564426561725C686113
:100CC0007264776172655C6E524635313832325CDF
:100CD000312E302E385C636F7265735C52424C5F0C
:100CE0006E524635313832325C776972696E675FB1
:100CF0006469676974616C2E6370700000000000A5
:100D00000000000000000000D1C80100BDC60100C5
:100D10006DC8010089C80100B1C80100E5C8010023
:100D200069C80100000000006D6265642061737392
:100D30006572746174696F6E206661696C65643A8E
:100D40002025732C2066696C653A2025732C206C55
:100D5000696E65202564200A006F626A2D3E706905
:100D60006E20213D202850696E4E616D65294E43ED
:100D700000433A5C55736572735C7A686F6E675CAA
:100D8000417070446174615C4C6F63616C5C417272
:100D90006475696E6F31355C7061636B6167657333
:100DA0005C526564426561725C686172647761720D
:100DB000655C6E524635313832325C312E302E3819
:100DC0002F636F7265732F52424C5F6E52463531FE
:100DD0003832322F6D6265642F7461726765747387
:100DE0002F68616C2F5441524745545F4E4F524417
:100DF00049432F5441524745545F4D43555F4E522E
:100E00004635313832322F6770696F5F6F626A65BD
:100E100063742E6800433A5C55736572735C7A683C
:100E20006F6E675C417070446174615C4C6F6361AC
:100E30006C5C41726475696E6F31355C7061636BB7
:100E4000616765735C526564426561725C6861727A
:100E500064776172655C6E524635313832325C318E
:100E60002E302E385C636F7265735C52424C5F6E3D
:100E7000524635313832325C6D6265645C74617241
:100E8000676574735C68616C5C5441524745545F9C
:100E90004E4F524449435C5441524745545F4D4381
:100EA000555F4E524635313832325C6770696F5F3C
:100EB0006170692E6300433A5C55736572735C7AA6
:100EC000686F6E675C417070446174615C4C6F6305
:100ED000616C5C41726475696E6F31355C70616321
:100EE0006B616765735C526564426561725C6861E1
:100EF0007264776172655C6E524635313832325CAD
:100F0000312E302E385C636F7265735C52424C5FD9
:100F10006E524635313832325C6D6265645C7461A4
:100F200072676574735C68616C5C544152474554E8
:100F30005F4E4F524449435C5441524745545F4DC4
:100F400043555F4E524635313832325C70696E6DB2
:100F500061702E6300000000B004000000F0040087
:100F60006009000000D00900C012000000B01300AA
:100F700080250000005027004038000000003B00A2
:100F8000004B000000A04E008070000000F07500D3
:100F9000127A0000000080000096000000509D00C2
:100FA000C0DA00000010E50000E1000000F0EB00F6
:100FB000002C010000903A0100C2010000E0D701BE
:100FC0000084030000B0AF0390D0030000000004D1
:100FD0000008070000705F0700100E0000D0BE0E72
:100FE00040420F00000000100B090A0815171011ED
:100FF00013120E0C0D0F1D1C19161401020304050B
:101000000600000089CF0100E9CF0100F1D0010006
:1010100019D1010021D0010004100200882900200C
:10102000706F77000000000000000000000000006A
:101030000000004003B8E23F000000000000000094
:1010400006D0CF43EBFD4C3E000000000000F03F17
:10105000000000000000F83F000000000000000059
:10106000000000000000304300000000000030C31A
:101070000000000000000000000000000000000070
:101080000000000000000000000000000000000060
:101090000000000000000000000000000000000050
:1010A0000000000000000000000000000000000040
:1010B0000000000000000000000000000000000030
:1010C0000000000000000000000000000000000020
:1010D00008280020F4F0010090F00100D8F0010091
:1010E000BEEF0100D8F00100CCF00100D8F0010003
:1010F000BEEF010090F0010090F00100CCF0010083
:10110000BEEF0100B4EF0100B4EF0100B4EF010045
:1011100018F30100C4F90100B2FB0100B2FB0100A9
:10112000A4F901008EF801008EF8010096F9010083
:10113000A4F901008EF8010096F901008EF8010073
:10114000A4F901008CF801008CF801008CF8010072
:08115000BAFB010000000000E1
:08115800C8AFFF7F0100000099
:101160000000000088130100000000007010020061
:1011700090100200B010020000000000000000000B
:1011800000000000000000006F0D020000000000E1
:10119000000000000000000000000000000000004F
:1011A000000000000000000000000000000000003F
:1011B000000000000000000000000000000000002F
:1011C000000000000000000008280020E9C0010025
:1011D00065C201001DC501008DC90100C1C001002B
:040000031000C581A3
:00000001FF
