:020000021000EC
:10C000000040002031C201006DC201006FC201007A
:10C010000000000000000000000000000000000020
:10C0200000000000000000000000000071C20100DC
:10C03000000000000000000073C2010075C2010092
:10C0400077C2010077C2010045C6010077C2010036
:10C0500077C201000000000077C2010077C2010032
:10C0600077C2010077C2010077C2010077C20100E8
:10C0700077C2010077C2010077C2010077C20100D8
:10C0800077C2010031C7010077C2010077C2010009
:10C0900077C2010077C2010077C2010077C20100B8
:10C0A00077C2010077C2010000000000000000001C
:10C0B0000000000000000000000000000000000080
:10C0C00010B5064C2378002B07D1054B002B02D06E
:10C0D000044800E000BF0123237010BD7428002035
:10C0E0000000000038D8010008B5084B002B03D031
:10C0F0000748084900E000BF07480368002B03D049
:10C10000064B002B00D0984708BDC0460000000039
:10C1100038D8010078280020742800200000000092
:10C12000164B002B00D1144B9D46402292029A1AC6
:10C13000924600218B460F461348144A121A00F00B
:10C1400023FD0F4B002B00D098470E4B002B00D047
:10C1500098470020002104000D000D48002802D05F
:10C160000C4800E000BF00F0E9FC2000290000F0CE
:10C1700059F900F0CDFCC046000008000040002046
:10C1800000000000000000007428002000290020AA
:10C1900000000000000000007047000010B5074CD0
:10C1A000201C00F02BF8C82000F0EBF8201C00F059
:10C1B0002CF8C82000F0E5F810BDC04690280020FB
:10C1C00010B5064C0921201C012200F00DF8201C9E
:10C1D0000349044A00F085FC10BDC04690280020A9
:10C1E0001DC201000028002010B5041C017042701F
:10C1F000081C012100F0CCF8201C10BD08B5031C60
:10C200005978007800F0ECF808BD08B5031C5B789D
:10C2100001210078594000F0E3F808BD10B5041C76
:10C22000FFF7F3FF2078002100F0B2F8201C10BDCA
:10C230000848026803210A4302600749074A084B7D
:10C240009B1A03DD043BC858D050FBDC05488047EF
:10C25000054800472405004044D80100002800207C
:10C260007428002079C2010021C10100FEE7FEE729
:10C27000FEE7FEE7FEE7FEE7334B10B51A78181C21
:10C28000012A12D1314B1B6819070ED1304BF02215
:10C290001B68E024191C1140234204D12D4B1B685C
:10C2A000134202D140E03029F8D00378012B0DD1A0
:10C2B000264A1268110709D1254A1168F022114057
:10C2C000402903D123490968114235D08023A32195
:10C2D000DB050122C9005A501F49002088609A607E
:10C2E0001E4B8A68002A2DD1C822C046C046C046CF
:10C2F000C046C046C046C046C046C046C046C0460E
:10C30000C046C046C046013A002AEED1013B002B90
:10C31000E7D18022A320D205C000135001239360EF
:10C320008B68002BFCD00DE00D490E4A1160802176
:10C330000D4A09021160B8E7C1228021D200C90567
:10C340008B50C3E710BDC046E00F00F0E40F00F0D3
:10C35000E80F00F0EC0F00F0FC0000408813000034
:10C36000DFFF07C004050040186C004038B5041C0E
:10C3700000F04AFA051C00F047FA401BA042FAD32D
:10C3800038BD08B5FA239B005843FFF7EFFF08BDFF
:10C3900030B587B00C1C00F0DDFA051C431C04D13D
:10C3A0000D480E490F2200F04DF86B461D70012C10
:10C3B00006D0002C04D0022C0BD10021032501E073
:10C3C000211C0025684600F001F96846291C00F090
:10C3D000F7F807B030BDC046B8D40100CFD4010093
:10C3E00038B50D1C00F0B6FA041C431C04D10948F2
:10C3F0000949232200F026F80122A023A240DB05F0
:10C40000141C002D02D0A121C90000E003495C509A
:10C4100038BDC046B8D40100CFD401000C050000DF
:10C420007047704708B5FFF7FCFFFFF7F9FF00F012
:10C430008BFA08BD08B5002800D1FEE700F026F809
:10C44000FBE7000038B5051C0C1C131C291C024816
:10C45000221C00F054F838BD45D5010038B5002342
:10C46000C356041C0D1C013304D10648064924227E
:10C47000FFF7E8FF6368002D01D0E26800E0226961
:10C48000136038BD76D501008ED5010000B599B096
:10C4900068460F2100F065F806A80F2100F061F84A
:10C4A0000CA80F2100F05DF812A80F2100F059F838
:10C4B00068460121FFF7D2FF06A80021FFF7CEFF53
:10C4C0000CA80021FFF7CAFF12A80121FFF7C6FF41
:10C4D000962000F056F868460021FFF7BFFF06A837
:10C4E0000121FFF7BBFF0CA80121FFF7B7FF12A83E
:10C4F0000021FFF7B3FF962000F043F8D8E70FB410
:10C50000012008B500F004FB38B50023C356041C15
:10C510000D1C013304D1064806492422FFF792FF7F
:10C520006368002D01D0E26800E02269136038BD25
:10C5300076D501008ED5010070B50D1C041C161CAB
:10C5400000F026F801350BD0201C311CFFF7DCFF72
:10C55000201C012100F03AF8201C002100F030F8E6
:10C5600070BD08B50022FFF7E7FF08BD38B5041C11
:10C5700000F04AF9051C00F047F9401BA042FAD32D
:10C5800038BD08B5FA239B005843FFF7EFFF08BDFD
:10C5900001704B1C0AD001238B404360044BC360E5
:10C5A000044B0361044B4361044B83607047C046F6
:10C5B000080500500C0500501005005014050050EF
:10C5C00008B5007840B200F01FF808BD38B5002368
:10C5D000C356051C0C1C013304D1094809492A2201
:10C5E000FFF730FF002C01D0012C07D10022AA5602
:10C5F000A023C132FF329200DB05D45038BDC046C3
:10C6000076D5010032D6010038B5041C0D1C431C40
:10C6100004D10A480A491A22FFF714FFA023A000F8
:10C62000DB05C018E023DB00C2580C218A43C2504E
:10C63000C258AD001543C55038BDC0467BD501007A
:10C64000D3D60100124AC1239B00D15810B5080669
:10C6500003D51049096A002911D1D3585A0716D5B4
:10C660000C4BDA68002A12D00024DC60084AA323AD
:10C67000DB00D058C0B200F0C1F9211C00E001215C
:10C68000054B1868002802D0044B1B68984710BD62
:10C6900000200040FC200040982800209428002022
:10C6A00003681A1CFC32106A0128FAD100201062BB
:10C6B000014AC9B2995070471C0500000368FC3359
:10C6C000186A013843425841704700000A490B4A32
:10C6D00088680B4B002808D01868013018600020CB
:10C6E00088600220D2218140505006491B68525870
:10C6F0001806190A10437047FC1001400010014051
:10C70000A0280020040500002F23C046C046C046D4
:10C71000C046C046C046C046C046C046C046C046E9
:10C72000C046C046C046013B002BEED1704700001A
:10C73000F8B5184B9A68002A0AD0174A02201168E7
:10C740000131116000229A601449D222824088503F
:10C750005B6C124C002B1CD00E4B8025D222920019
:10C7600000266D025E64A5500D4A1378B34210D0C6
:10C770000C4B1F68FFF7AAFF3F1AB74209DC084BB2
:10C78000D2221E70C2239B009200E550A55000F0FB
:10C790005FF9F8BDFC100140A02800200010014006
:10C7A000A52800209C28002038B5124C2278002AA9
:10C7B0001FD1114BA121C9005A500222D221914010
:10C7C0005A50C12191405A500C4AC42189005558F1
:10C7D0000B482840C0252D02284350508021C020FE
:10C7E000890240000125115011601D60FFF78CFF88
:10C7F000257038BDA42800200010014000E100E0B1
:10C80000FF00FFFF0000000008B50B4B1B78002B5A
:10C8100001D1FFF7C9FFFFF759FF064B044A00F0AB
:10C820002BFA4904C00B084308BDC046C046C046A9
:10C8300040420F0000000000A4280020C046C0466F
:10C840002F4B70B51B78061C002B01D1FFF7ACFFF6
:10C85000FFF73CFF254B244A00F00EFA4B04C00BB7
:10C86000002400251843CD0B0023321CA4185D4181
:10C8700080231B06984205D9002E03DB1C4A1D4B62
:10C88000A4185D41610CEB030B43E2031A481B49FA
:10C8900080185941154B144A00F0CEF9194D041C6B
:10C8A0002B78194E002B02D0336898421BD0FFF72B
:10C8B0000DFF201A022802DCFFF708FF841C21026A
:10C8C000124BA822D200090A99502A783460002A13
:10C8D00009D101222A70D2218022520289005A50A5
:10C8E000C12189005A5070BD40420F000000000075
:10C8F00000000000010000003F420F0000000000A7
:10C90000A4280020A52800209C2800200010014019
:10C91000074B1A78002A0AD0064A8021C220490211
:10C9200080001150D2208000115000221A707047F0
:10C93000A528002000100140024B00229A605A6492
:10C940007047C046FC10014008B5FFF725FCFFF713
:10C9500025FCFCE7FF23182801D8024B1B5C58B2CA
:10C960007047C04672D7010001207047054B1A1C62
:10C970004032107841331B784030C01A3F231840B2
:10C980007047C046A6280020084A111C101C4131DF
:10C9900040300B780078984205D0D05C01333F22BC
:10C9A00013400B7001E0012040427047A628002090
:10C9B000064B1A1C191C41324031127809789142F9
:10C9C00001D0985C01E0012040427047A628002079
:10C9D00007B5034B68460093FFF762FE0EBDC046E5
:10C9E0000020004007B5044B00936846FFF766FE41
:10C9F0000028FAD007BDC0460020004030B5074BE4
:10CA00003F211A1C40321478651C29401D1C4135F9
:10CA10002D788D4201D01855117030BDA628002008
:10CA200000234360FA239B008360024B08330360BA
:10CA30007047C04690D7010008B5034800F021F8C0
:10CA40000248FFF7EDFF08BDA6280020E8280020D7
:10CA500008B5024800F022F808BDC046CCD7010056
:10CA6000F8B5061C0C1C8F180025BC4207D0336893
:10CA700021781B68301C984701342D18F5E7281CD5
:10CA8000F8BD10B50021041C402200F07DF8221CE6
:10CA900040320023201C1370537010BD38B503685A
:10CAA000041CDB68984763685A682368002A02D12F
:10CAB0009B68984714E05B681568984763682D1A6F
:10CAC000002D08DC5A68916859601B68002BEAD079
:10CAD00050689847E7E75B682268186813699847C9
:10CAE00038BD08B5031C081C191C00F001F808BD6E
:10CAF00038B5051C05480C1C131C002804D0022066
:10CB0000291C221C00E000BF38BDC0460000000008
:10CB1000084B10B5041C002B02D0002100E000BF20
:10CB2000054B1868836A002B00D09847201CFFF73C
:10CB300081FCC0460000000034D8010070B50E4BE7
:10CB40000E4D0024ED1AAD101E1CAC4204D0A30003
:10CB5000F35898470134F8E700F0A2FC084B094D60
:10CB60000024ED1AAD101E1CAC4204D0A300F358F3
:10CB700098470134F8E770BD64280020642800203D
:10CB80006428002070280020031C8218934202D0E1
:10CB900019700133FAE77047002934D001230022CD
:10CBA00010B488422CD301242407A14204D281422C
:10CBB00002D209011B01F8E7E400A14204D281423C
:10CBC00002D249005B00F8E7884201D3401A1A43B9
:10CBD0004C08A04202D3001B5C0822438C08A042F0
:10CBE00002D3001B9C082243CC08A04202D3001BA6
:10CBF000DC082243002803D01B0901D00909E3E720
:10CC0000101C10BC7047002801D00020C04307B49E
:10CC1000024802A14018029003BDC046190000005E
:10CC20000029F0D003B5FFF7B9FF0EBC4243891AC3
:10CC30001847C0467047C046002B11D1002A0FD1BB
:10CC4000002900D1002802D00021C943081C07B4E4
:10CC5000024802A14018029003BDC046D9FFFFFF61
:10CC600003B4684601B5029800F044F8019B9E4663
:10CC700002B00CBC7047C0469C460304F0B51B0CC8
:10CC800017043F0C150C1E1C041C000C7E436B4348
:10CC900047434543FB18300C1818874202D98023BC
:10CCA0005B02ED18030CED1863465C434A433604FF
:10CCB000360CA118000480194919F0BDF0B583B0F5
:10CCC000161C1F1C0090019100F04CF8041C0D1C58
:10CCD000221C2B1C301C391CFFF7CEFF009A019B35
:10CCE000121A8B410899201C0A604B60291C03B062
:10CCF000F0BDC046F0B583B0141C1D1C009001911E
:10CD000000F00CFA221C2B1C061C0F1CFFF7B4FFB2
:10CD1000009A019B121A8B410899301C0A604B60E3
:10CD2000391C03B0F0BDC0461C2101231B049842EE
:10CD300001D3000C10391B0A984201D3000A0839AC
:10CD40001B09984201D30009043902A2105C401863
:10CD50007047C04604030202010101010000000007
:10CD600000000000F0B544465F4656464D46F0B41C
:10CD70001C1C85B0002900DADBE00F1C0021061C1A
:10CD80008A46101C191C002C00DAC9E0019600909C
:10CD900089468046002951D1B84200D871E0FFF79A
:10CDA000C3FF002809D020234546311C1B1A8540AB
:10CDB0008740D940A8460F4386404246150C1304CD
:10CDC0001B0C291C381C9B46FFF7E6FE5B464343C1
:10CDD000041C291C381C9946FFF722FF330C080459
:10CDE0001843814509D94044631E804500D978E144
:10CDF000814500D875E1023C40444946411A8946C4
:10CE0000081C291CFFF7C8FE5A464243071C291C70
:10CE100048469346FFF704FF36040904360C0E43D8
:10CE2000B34507D946447B1EB04502D8023FB345FF
:10CE300000D81F1C24042743002403E0B94211D961
:10CE4000002400275246381C211C002A03D03B1C1A
:10CE500000215842A14105B03CBC90469946A246EB
:10CE6000AB46F0BD081CFFF75FFF041E00D0BFE01B
:10CE7000B94500D242E1019D0099071C8D4247410E
:10CE8000E0E7002804D101200021FFF785FE80465D
:10CE90004046FFF749FF002852D1414644460B0463
:10CEA0003C1B1B0CA3460D0C00930124291C584667
:10CEB000FFF772FE009F81464743291C5846FFF743
:10CEC000AFFE330C090419438F4208D94B46414445
:10CED000013B884502D88F4200D91AE19946C91B07
:10CEE0008B46081C291CFFF757FE009B291C434357
:10CEF000071C58460093FFF793FE3604009D090473
:10CF0000360C0E43B54207D946447B1EB04502D8C5
:10CF1000023FB54200D81F1C49460E04374391E733
:10CF20005246D243031C0C1C924600215842A14198
:10CF30002CE7002746428F41012149428A4620E7DB
:10CF400020231B1A4246351C82403C1CDD40DC403D
:10CF500087402B1C150C3B43291C8640201C00934A
:10CF600017049046FFF718FE3F0C011C79438146D9
:10CF70008B46201C291CFFF753FE009C0904230C40
:10CF800019438B450CD94B464144013B884500D998
:10CF9000BDE08B4500D8BAE00222524291444144A0
:10CFA0005C460C1B201C291C0194FFF7F5FD391C65
:10CFB0004143041C8B460198291CFFF731FE009A5F
:10CFC000090413041B0C19438B4509D94144631E02
:10CFD000884500D997E08B4500D894E0023C414455
:10CFE0005B46CB1A49469B460B041C4300975DE702
:10CFF000009D20231B1A4A468240DD401543391C00
:10D00000009AD94082408846311C0092D9403A1C8F
:10D0100082400B1C134301932F0C2B041B0C391C57
:10D0200040460293FFF7B8FD029A81464243391CFD
:10D0300040469346FFF7F4FD019A0904130C194387
:10D040008B450AD94B464919013B8D425DD88B452A
:10D050005BD902235B42994449195A468A1A101C2B
:10D06000391C0392FFF798FD029B80464343391C0D
:10D0700003989B46FFF7D4FD019A090413041B0C87
:10D0800019438B450AD943464919013B8D4238D88B
:10D090008B4536D902235B42984449195D464D1BA6
:10D0A000AB464946009D0F04424617432A04120C22
:10D0B0003B042D0C1B0C380C111C594342436B4391
:10D0C0006843D3180D0C5B198C469A4202D9802212
:10D0D000520280181D0C401983450CD303D0002444
:10D0E000B0E61C1C89E665462A041B04120C9B183A
:10D0F000A6409E42F3D2013F0024A3E6002401276C
:10D10000A0E69846CAE71C1C6AE79946A5E7994637
:10D1100046E70222524291444144E0E6F0B55F46C0
:10D1200056464D464446F0B40D1C85B0061C92464A
:10D1300098460290019103921F1C141C8346A94635
:10D14000002B59D1AA4269D9101CFFF7EDFD002828
:10D150000AD020231B1A311CD94085400B1C2B43BD
:10D16000864084409946B346250C23041B0C291C99
:10D1700048469846FFF710FD4646071C4643291CC3
:10D180004846FFF74DFD5A460904130C19438E42D9
:10D1900009D909197B1E8C4200D957E18E4200D86B
:10D1A00054E1023F0919891B8946081C291CFFF715
:10D1B000F3FC43464343061C291C48469846FFF7A8
:10D1C0002FFD5A46130409041B0C1943884508D93E
:10D1D0000919731E8C4200D936E1023E884500D8F9
:10D1E00032E1380430430027391C05B03CBC90467E
:10D1F0009946A246AB46F0BD019A934262D8181CEC
:10D20000FFF792FD041E60D1019B9F4200D22CE1EA
:10D21000029F03998F4260410027E5E7002A04D16D
:10D2200001200021FFF7B8FC041C201CFFF77CFD47
:10D23000002800D0B9E023042D1B1B0CA946260CA6
:10D2400098460127311C4846FFF7A6FC414641435A
:10D25000051C8A464846311CFFF7E2FC5A46080482
:10D26000130C1843824507D900196B1E844202D85B
:10D27000824500D910E11D1C5346C31A181C311CED
:10D280009A46FFF789FC414641438146884650460D
:10D29000311CFFF7C5FC5A46130409041B0C194343
:10D2A00088450BD94B460919013B8C4200D9CFE088
:10D2B000884500D8CCE002235B42994428044946C3
:10D2C000084391E7002700208EE720231B1A4246DF
:10D2D00057468240DF401743524682400192321C3B
:10D2E000DA40291CD9408540131C2B4302933D0C86
:10D2F0003B041B0C8846081C291C9A46FFF74CFC73
:10D30000534643438146291C40469B46FFF788FC11
:10D31000029A0904130C19438B4506D94B46C919C7
:10D32000013B8F4200D8ABE099465A468A1A101C3E
:10D33000291C9346FFF730FC53464343291C804683
:10D3400058469A46FFF76CFC029A090415042D0C06
:10D3500029438A4506D94346C919013B8F4200D863
:10D3600086E098465746CF1BBA464946019F0804B7
:10D37000424610433D042D0C03043F0C1B0C020CD1
:10D38000291C594355437B437A43EB180F0CDB1997
:10D390008C469D4202D980277F02D2191D0C52195A
:10D3A00092455FD356D000271EE720231B1A311C5D
:10D3B0002F1CD940DF4085400B1C84402B43864006
:10D3C0000193B3462304260C1B0C381C311C9846D1
:10D3D000FFF7E2FB42464243051C311C381C9146D4
:10D3E000FFF71EFC019F09043B0C1943894507D92F
:10D3F00009196B1E8C424DD889454BD9023D09193C
:10D400004A468A1A101C311C9246FFF7C5FB434658
:10D410004343071C311C50469946FFF701FC019A13
:10D42000090413041B0C1943894507D909197B1EEC
:10D430008C422DD889452BD9023F09194B46CB1A6E
:10D440002D0499462F43FDE61E1CCAE61F1CAAE6C2
:10D45000994633E761460A041B04120C9B18A64048
:10D460009E42A0D201380027BEE600270120BBE67D
:10D470008A4500D875E702235B429844C91971E7D1
:10D480008B4500D850E702235B429944C9194CE709
:10D490001F1CD3E71D1CB3E7023D0019ECE6C04694
:10D4A000F8B5C046F8BC08BC9E467047F8B5C04603
:10D4B000F8BC08BC9E4670476E72665F70696E204D
:10D4C000213D202850696E4E616D65294E43004311
:10D4D0003A5C55736572735C7A686F6E675C417015
:10D4E00070446174615C4C6F63616C5C4172647523
:10D4F000696E6F31355C7061636B616765735C5237
:10D500006564426561725C68617264776172655CD2
:10D510006E524635313832325C312E302E385C63F3
:10D520006F7265735C52424C5F6E524635313832D1
:10D53000325C776972696E675F6469676974616C90
:10D540002E637070006D6265642061737365727420
:10D550006174696F6E206661696C65643A20257339
:10D560002C2066696C653A2025732C206C696E65E9
:10D57000202564200A006F626A2D3E70696E2021AA
:10D580003D202850696E4E616D65294E4300433A37
:10D590005C55736572735C7A686F6E675C4170701E
:10D5A000446174615C4C6F63616C5C417264756969
:10D5B0006E6F31355C7061636B616765735C52657A
:10D5C00064426561725C68617264776172655C6E09
:10D5D000524635313832325C312E302E382F636F5F
:10D5E0007265732F52424C5F6E524635313832327B
:10D5F0002F6D6265642F746172676574732F686143
:10D600006C2F5441524745545F4E4F524449432F6B
:10D610005441524745545F4D43555F4E5246353154
:10D620003832322F6770696F5F6F626A6563742E7C
:10D630006800433A5C55736572735C7A686F6E6715
:10D640005C417070446174615C4C6F63616C5C41FF
:10D65000726475696E6F31355C7061636B616765AB
:10D66000735C526564426561725C68617264776183
:10D6700072655C6E524635313832325C312E302E56
:10D68000385C636F7265735C52424C5F6E52463514
:10D69000313832325C6D6265645C746172676574E6
:10D6A000735C68616C5C5441524745545F4E4F5205
:10D6B0004449435C5441524745545F4D43555F4E86
:10D6C000524635313832325C6770696F5F6170691C
:10D6D0002E6300433A5C55736572735C7A686F6EB3
:10D6E000675C417070446174615C4C6F63616C5C39
:10D6F00041726475696E6F31355C7061636B61672F
:10D7000065735C526564426561725C6861726477DE
:10D710006172655C6E524635313832325C312E3082
:10D720002E385C636F7265735C52424C5F6E52467A
:10D7300035313832325C6D6265645C746172676584
:10D7400074735C68616C5C5441524745545F4E4F42
:10D75000524449435C5441524745545F4D43555FE1
:10D760004E524635313832325C70696E6D61702EC2
:10D7700063000B090A081517101113120E0C0D0F78
:10D780001D1C191614010203040506000000000008
:10D790000000000000000000D1C9010061CA0100C2
:10D7A0006DC9010089C90100B1C90100E5C90100C5
:10D7B00069C9010000000000A9C7010009C80100F3
:10D7C00011C9010039C9010041C80100B8D70100E1
:10D7D000F828002000000000000000000000000009
:10D7E0000000000000000000000000000000000039
:10D7F0000000000000000000000000000000000029
:10D800000000000000000000000000000000000018
:10D810000000000000000000000000000000000008
:10D8200000000000000000000000000000000000F8
:0CD83000000000000428002000000000A0
:08D83C00E4E8FF7F0100000099
:10D844000000000000000000D4D70100F4D701005C
:10D8540014D80100000000000000000000000000D7
:10D86400000000008CD50100000000000000000052
:10D8740000000000000000000000000000000000A4
:10D884000000000000000000000000000000000094
:10D894000000000000000000000000000000000084
:10D8A40000000000E9C00100C1C1010039CA010043
:04D8B400C1C00100EE
:040000031000C231F6
:00000001FF
