:020000021000EC
:10C00000004000201DC3010059C301005BC30100B3
:10C010000000000000000000000000000000000020
:10C020000000000000000000000000005DC30100EF
:10C0300000000000000000005FC3010061C30100B8
:10C0400063C3010063C3010051CE010063C301005B
:10C0500063C301000000000063C3010063C301006B
:10C0600063C3010063C30100EDC8010063C30100A5
:10C0700063C3010063C3010063C3010063C3010024
:10C0800063C301003DCF010063C3010063C301002E
:10C0900063C3010063C3010063C3010063C3010004
:10C0A00063C3010063C30100000000000000000042
:10C0B0000000000000000000000000000000000080
:10C0C00010B5064C2378002B07D1054B002B02D06E
:10C0D000044800E000BF0123237010BD8828002021
:10C0E000000000004420020008B5084B002B03D0DC
:10C0F0000748084900E000BF07480368002B03D049
:10C10000064B002B00D0984708BDC0460000000039
:10C11000442002008C280020882800200000000015
:10C12000164B002B00D1144B9D46402292029A1AC6
:10C13000924600218B460F461348144A121A02F009
:10C14000F9FA0F4B002B00D098470E4B002B00D074
:10C1500098470020002104000D000D48002802D05F
:10C160000C4800E000BF02F0BFFA2000290000F0F8
:10C170008BFA02F0A3FAC04600000800004000203D
:10C180000000000000000000882800206C2900202A
:10C19000000000000000000038B5144B012418789E
:10C1A000597800F04FFA124B0525597818786140FC
:10C1B00000F048FA0F4B211C187800F043FA0E4C9F
:10C1C000013D6178207800F03DFAFA20400000F04F
:10C1D0000AFA637801212078594000F033FAEDB271
:10C1E000C82000F000FA002DE9D138BDA4280020B5
:10C1F000B4280020C4280020D4280020F7B5134C10
:10C200001326E368B34200DD9EB26D460635002377
:10C210002B802F88301CE168BFB202F0E1FA874220
:10C2200013DA6168207800F017F96168A3685A187A
:10C230006260013AF82A01D95B42A360E06800F02D
:10C24000D2F92B8801339BB2E2E7F7BDE428002046
:10C2500070B51D4E0921301C012200F043F81B4D22
:10C260001B4C291C221C301C01F05BF8194E0821C4
:10C27000301C012200F036F8291C221C301C01F071
:10C2800050F8154E1221301C012200F02BF8291C09
:10C29000221C301C01F045F8104E0421301C0122F4
:10C2A00000F020F8291C221C301C01F03AF80C4E3A
:10C2B0001121301C012200F015F8301C291C221C11
:10C2C00001F02FF870BDC046A428002001C3010072
:10C2D00000280020B4280020C4280020D4280020F2
:10C2E000E428002010B5052383601323041C01708B
:10C2F0004270C360081C012100F07CF9201C10BDB5
:10C3000010B5041C637801215940007800F09AF9B7
:10C310002078002100F06EF9201C10BD084802684A
:10C3200003210A4302600749074A084B9B1A03DDB1
:10C33000043BC858D050FBDC0548804705480047FF
:10C3400024050040502002000028002088280020FA
:10C3500065C3010021C10100FEE7FEE7FEE7FEE73D
:10C36000FEE7FEE7334B10B51A78181C012A12D1EC
:10C37000314B1B6819070ED1304BF0221B68E024AB
:10C38000191C1140234204D12D4B1B68134202D1CA
:10C3900040E03029F8D00378012B0DD1264A1268ED
:10C3A000110709D1254A1168F0221140402903D113
:10C3B00023490968114235D08023A321DB050122DE
:10C3C000C9005A501F49002088609A601E4B8A6835
:10C3D000002A2DD1C822C046C046C046C046C0462D
:10C3E000C046C046C046C046C046C046C046C0461D
:10C3F000C046013A002AEED1013B002BE7D1802252
:10C40000A320D205C0001350012393608B68002B3A
:10C41000FCD00DE00D490E4A116080210D4A090241
:10C420001160B8E7C1228021D200C9058B50C3E753
:10C4300010BDC046E00F00F0E40F00F0E80F00F080
:10C44000EC0F00F0FC00004088130000DFFF07C085
:10C4500004050040186C0040F0B589B0071C0C1CA6
:10C4600000F07CFE061C701C04D153485349862200
:10C4700000F01AF9524B00215956B1420AD001225C
:10C480009A56B24208D09B785BB2B34206D00131D3
:10C490000AD124E0002302E0012300E00223494AFC
:10C4A0001078082806D10DE001321AD001337AD174
:10C4B000022517E0082802D90838C44002E0082203
:10C4C000101A844007AD2B70201C02F0EDFF3E498E
:10C4D00002F0F0FA011C281C00F05EFB63E000256E
:10C4E00000E001250195002C0ED13548FF23019A6B
:10C4F000435507A8027000F0BBFA381C012100F078
:10C5000079F8381C211C2DE02E4B187804F09AFD88
:10C51000021C0B1C2749264800F03AFF02900391A9
:10C52000201C04F08FFD234B214A049005910298B2
:10C53000039904F01FFA021C0B1C0498059902F0E1
:10C54000E5F9002811D01E48FF234355019B6A4698
:10C5500007A8137700F08CFA381C012100F04AF884
:10C56000381C012100F06EF81DE0019A6846027740
:10C57000311C07A800F0A2FB124B1878082806D03F
:10C5800002D90838C44002E00823181A8440201C4D
:10C5900002F08AFF0C4902F08DFA011C07A800F096
:10C5A000FBFA074B5E5509B0F0BDC046C046C04619
:10C5B00000000000000000403C1802005318020078
:10C5C000042800200728002000007F43C046C04602
:10C5D00038B5041C00F01CFD051C00F019FD401BC3
:10C5E000A042FAD338BD08B5FA239B005843FFF7A1
:10C5F000EFFF08BD30B587B00C1C00F0AFFD051C87
:10C60000431C04D10D480E490F2200F04DF86B4633
:10C610001D70012C06D0002C04D0022C0BD100215F
:10C62000032501E0211C0025684600F001F9684659
:10C63000291C00F0F7F807B030BDC0463C180200D6
:10C64000C818020038B50D1C00F088FD041C431CFE
:10C6500004D109480949232200F026F80122A02329
:10C66000A240DB05141C002D02D0A121C90000E06E
:10C6700003495C5038BDC0463C180200C81802008F
:10C680000C0500007047704708B5FFF7FCFFFFF787
:10C69000F9FF00F05DFD08BD08B5002800D1FEE7F8
:10C6A00000F026F8FBE7000038B5051C0C1C131C35
:10C6B000291C0248221C00F054F838BD3E19020023
:10C6C00038B50023C356041C0D1C013304D10648A1
:10C6D00006492422FFF7E8FF6368002D01D0E268D5
:10C6E00000E02269136038BD6F190200871902004B
:10C6F00000B599B068460F2100F065F806A80F2133
:10C7000000F061F80CA80F2100F05DF812A80F21CD
:10C7100000F059F868460121FFF7D2FF06A8002172
:10C72000FFF7CEFF0CA80021FFF7CAFF12A80121D6
:10C73000FFF7C6FF962000F056F868460021FFF785
:10C74000BFFF06A80121FFF7BBFF0CA80121FFF7DF
:10C75000B7FF12A80021FFF7B3FF962000F043F8BF
:10C76000D8E70FB4012008B501F0A8FF38B50023C1
:10C77000C356041C0D1C013304D10648064924226B
:10C78000FFF792FF6368002D01D0E26800E02269A4
:10C79000136038BD6F1902008719020070B50D1CB7
:10C7A000041C161C00F026F801350BD0201C311C8F
:10C7B000FFF7DCFF201C012100F03AF8201C0021CB
:10C7C00000F030F870BD08B50022FFF7E7FF08BDA4
:10C7D00038B5041C00F01CFC051C00F019FC401BC3
:10C7E000A042FAD338BD08B5FA239B005843FFF79F
:10C7F000EFFF08BD01704B1C0AD001238B40436042
:10C80000044BC360044B0361044B4361044B8360DE
:10C810007047C046080500500C0500501005005038
:10C820001405005008B5007840B200F01FF808BDAC
:10C8300038B50023C356051C0C1C013304D109482C
:10C8400009492A22FFF730FF002C01D0012C07D123
:10C850000022AA56A023C132FF329200DB05D45039
:10C8600038BDC0466F1902002B1A020038B5041CEF
:10C870000D1C431C04D10A480A491A22FFF714FF71
:10C88000A023A000DB05C018E023DB00C2580C2168
:10C890008A43C250C258AD001543C55038BDC0468A
:10C8A00074190200CC1A020002780D4B9200D218C3
:10C8B000A223DB0010B58020D45840032043D05081
:10C8C000002902D0D158074806E0D0580649014057
:10C8D000D150D058802149020143D15010BDC046EB
:10C8E0000060004003000300FFFFFCFF114A00212D
:10C8F0001165114A114B1188114A9950114A11784A
:10C90000002904D010490888A821C900585051783E
:10C91000002903D00C4948880C4958509278002AC5
:10C9200004D0094A9188A922D200995001221A60A4
:10C930007047C046FCA000400828002000A000402E
:10C940004C050000FA2800200A28002044050000B9
:10C95000164B002210B55A60904210D1144A0121A2
:10C9600098509950134A06219850A122D20098500D
:10C97000A222D2009950104A1188104A9950104AA8
:10C98000410051308A5AFF3080001A50C2210D4AAE
:10C99000890054580C4820408024E4032043505020
:10C9A0008021C900116001221A6010BD00A0004062
:10C9B000FC0F000004050000082800204C050000C2
:10C9C0000A28002000E100E0FFFF00FFE022520003
:10C9D00010B5A0238418DB05A4000122E2500C4C02
:10C9E00082401A510B4B8900C9180B4AA223DB0065
:10C9F000CA50C046C046C04601230B60074B000228
:10CA00001843A223DB00C850C046C046C04610BD34
:10CA10000C05000000600040031F0200030003003B
:10CA200010B5002A02D0FFF73FFF17E002780C4B49
:10CA30009200D218A223DB00D4580A482040D050DC
:10CA4000002902D0D158084806E0D05807490140D3
:10CA5000D150D058802189020143D15010BDC04629
:10CA600000600040FFFFEFFF03000300FFFFFCFF3B
:10CA70000378F7B5041CFF2B05D114223B483C4931
:10CA8000FF32FFF711FE257801213A4B3A4E8D40D7
:10CA900000201865AE5B394B394F796001961E88CE
:10CAA000301C02F0A5FC002102F0E8F901F0B4FF0F
:10CAB000344B82B23048EA522A52002A04D1012172
:10CAC000E952201C111C14E0B24206D1013A201C8C
:10CAD0000021EA52FFF7E8FE0DE0019D002D01D094
:10CAE000B54208D1019D201CAA1B56427241D2B208
:10CAF0000121FFF795FF8022C12312039B00FA500A
:10CB0000214A80239B00FA502178204B01220020EB
:10CB10003A6058545978814204D19B78834201D1BC
:10CB2000174B5A6022781A49A023DB00CE585000D8
:10CB3000C0B201250196471C2E1CBE408540019FB6
:10CB4000301C28438743CF50617812489200121856
:10CB500049B2A2200023C000C1311360FF3113503D
:10CB6000A0228900D2058B50F7BDC046D41C02001C
:10CB7000EC1C0200FCA00040F42800200828002043
:10CB800000A000400A28002008080000FA28002021
:10CB900000F00140006000402C4BF7B52C4C002207
:10CBA0001A650123061C0D1C081C6360002101F09E
:10CBB000C9FE002809D1FE21281C890501F0D6FEF6
:10CBC000002803D0FE25AD0500E00025214B347878
:10CBD00021491F886400615A381C019102F008FC49
:10CBE000011C281C02F04AF901F016FF1B4B1A49E0
:10CBF00082B2E2526252002A04D10121E152301C79
:10CC0000111C14E0BA4206D1013A301C0021E25254
:10CC1000FFF74AFE0DE0019A002A01D0BA4208D17E
:10CC2000019B301CDA1B57427A41D2B20121FFF737
:10CC3000F7FE07498022C12312039B00CA50084A0D
:10CC400080239B00CA5001230B60F7BDFCA000406D
:10CC500000A0004008280020F42800200A28002016
:10CC600008080000CB17104A9B0F002010655918C8
:10CC70000E480F4B01225A6089100E4A814202D998
:10CC80000121494202E0042900D8052111808021B8
:10CC9000C1220903920099500749802292009950BD
:10CCA00001221A607047C046FCA00040FFFF000050
:10CCB00000A000400828002008080000F7B5041C68
:10CCC0000E1C081C514900F0D3FAC5B2071CFF2DF9
:10CCD00004D14F484F49EE22FFF7E6FC4E4BFFB21E
:10CCE000D95D012200290FD05978002902D15A704C
:10CCF000151C0AE09978002902D19A70022504E0F7
:10CD00004648FFF72EFD00E0DA55301C6670291CFE
:10CD10002570FFF75BFE42496A00D2B2414BAF007B
:10CD20007F18561C3F49D000C018B4463E4BF60051
:10CD30007618C750F7503D4BAF00FF18A223DB0019
:10CD4000C7503B48F050081CA021C9004658012399
:10CD500001961F1C6646B740BC461F1C97403A1CF4
:10CD60006646019F32433A434250002D02D1802251
:10CD7000D2059367281CFFF7EBFD201C2D49FFF718
:10CD800071FF257801222C4B2C4E9540002119650E
:10CD9000AE5B2B4B2B4F7A6001961E88301C02F045
:10CDA00027FB002102F06AF801F036FE264B2349EA
:10CDB00082B2EA526A52002A04D10126EE52201CA5
:10CDC000111C14E0B24206D1013A201C0021EA52A3
:10CDD000FFF76AFD0DE00199002901D0B14208D1A9
:10CDE000019B201C9A1B56427241D2B20121FFF7CF
:10CDF00017FE8022C12312039B00FA50134A80239E
:10CE00009B00FA5001233B60F7BDC0466C1B02003B
:10CE1000D91C0200EC1C0200FA2800208F1D020021
:10CE20000060004000F001401405000040A10040F7
:10CE30004CA10040204E0000FCA00040F42800203F
:10CE40000828002000A000400A2800200808000050
:10CE5000124AC1239B00D15810B5080603D51049CA
:10CE6000096A002911D1D3585A0716D50C4BDA6834
:10CE7000002A12D00024DC60084AA323DB00D0582B
:10CE8000C0B200F0BFF9211C00E00121054B186879
:10CE9000002802D0044B1B68984710BD00200040BA
:10CEA000FC200040042900200029002003681A1CEF
:10CEB000FC32106A0128FAD100201062014AC9B27E
:10CEC000995070471C0500000368FC33186A01384C
:10CED00043425841704700000A490B4A88680B4B8F
:10CEE000002808D0186801301860002088600220EF
:10CEF000D2218140505006491B6852581806190A21
:10CF000010437047FC100140001001400C29002024
:10CF1000040500002F23C046C046C046C046C04698
:10CF2000C046C046C046C046C046C046C046C046D1
:10CF3000C046013B002BEED170470000F8B5184BFE
:10CF40009A68002A0AD0174A02201168013111603C
:10CF500000229A601449D222824088505B6C124CA5
:10CF6000002B1CD00E4B8025D222920000266D0291
:10CF70005E64A5500D4A1378B34210D00C4B1F6865
:10CF8000FFF7AAFF3F1AB74209DC084BD2221E70F6
:10CF9000C2239B009200E550A55000F079F9F8BD3E
:10CFA000FC1001400C290020001001401129002034
:10CFB0000829002038B5124C2278002A1FD1114BC5
:10CFC000A121C9005A500222D22191405A50C121B8
:10CFD00091405A500C4AC421890055580B482840AA
:10CFE000C0252D02284350508021C02089024000D6
:10CFF0000125115011601D60FFF78CFF257038BDB1
:10D00000102900200010014000E100E0FF00FFFFB8
:10D0100008B50B4B1B78002B01D1FFF7CBFFFFF7B7
:10D020005BFF064B044A01F0D5FC4904C00B0843E2
:10D0300008BDC046C046C04640420F000000000088
:10D0400010290020C046C0462F4B70B51B78061C27
:10D05000002B01D1FFF7AEFFFFF73EFF254B244A1F
:10D0600001F0B8FC4B04C00B002400251843CD0B85
:10D070000023321CA4185D4180231B06984205D969
:10D08000002E03DB1C4A1D4BA4185D41610CEB0311
:10D090000B43E2031A481B4980185941154B144AA7
:10D0A00001F078FC194D041C2B78194E002B02D08E
:10D0B000336898421BD0FFF70FFF201A022802DCCA
:10D0C000FFF70AFF841C2102124BA822D200090A92
:10D0D00099502A783460002A09D101222A70D2217D
:10D0E0008022520289005A50C12189005A5070BDD5
:10D0F00040420F000000000000000000010000009E
:10D100003F420F00000000001029002011290020DC
:10D110000829002000100140074B1A78002A0AD085
:10D12000064A8021C220490280001150D22080008E
:10D13000115000221A707047112900200010014080
:10D14000024B00229A605A647047C046FC100140AE
:10D1500008B5FFF721F8FFF751F8FCE7FF2318287F
:10D1600001D8024B1B5C58B27047C046D11D02006B
:10D1700001207047054B1A1C4032107841331B7850
:10D180004030C01A3F2318407047C0461229002083
:10D19000084A111C101C413140300B78007898422D
:10D1A00005D0D05C01333F2213400B7001E0012019
:10D1B0004042704712290020064B1A1C191C4132AC
:10D1C000403112780978914201D0985C01E0012049
:10D1D000404270471229002007B5034B6846009370
:10D1E000FFF764FE0EBDC0460020004007B5044BAB
:10D1F00000936846FFF768FE0028FAD007BDC046D6
:10D200000020004030B5074B3F211A1C40321478F3
:10D21000651C29401D1C41352D788D4201D01855C3
:10D22000117030BD1229002000234360FA239B00B7
:10D230008360024B083303607047C046F01D020054
:10D2400008B5034800F03DF80248FFF7EDFF08BDC0
:10D2500012290020542900200023CB565A1C05D047
:10D26000834201D1486802E00C31F5E7181C704791
:10D2700010B5041C431C07D0FFF7EEFF041C431C31
:10D2800002D10248FFF76DFA201C10BD3A1E0200C1
:10D2900008B5024800F022F808BDC0468C1E020006
:10D2A000F8B5061C0C1C8F180025BC4207D033684B
:10D2B00021781B68301C984701342D18F5E7281C8D
:10D2C000F8BD10B50021041C402201F033FA221CE5
:10D2D00040320023201C1370537010BD38B5036812
:10D2E000041CDB68984763685A682368002A02D1E7
:10D2F0009B68984714E05B681568984763682D1A27
:10D30000002D08DC5A68916859601B68002BEAD030
:10D3100050689847E7E75B68226818681369984780
:10D3200038BD08B5031C081C191C01F0B1F908BD73
:10D330000B1C011C021C30B519430220002900D12E
:10D3400030BD802109068B4216D00D4904205C189F
:10D350000C498C42F4D90C4D5C198C42F0D90B4C21
:10D36000590049080320A142EAD9074C0020A142F4
:10D37000E6D150425041E3E7002AE1D0EFE7C04652
:10D380000000F0FFFFFFDF7F0000F07FFFFF0F00D6
:10D39000F0B546464F46C0B48FB0161C1F1C009017
:10D3A000019100F0ADF9BC4A0023D356041C0D1CBA
:10D3B000904602940395013305D0301C391CFFF7C9
:10D3C000B7FF002806D1029803990FB00CBC904615
:10D3D0009946F0BD00980199FFF7AAFF8146002801
:10D3E00031D1301C391CA14B9F4A01F06BFA002847
:10D3F000E9D001230493A94B04AC63604B4623623C
:10D40000009A019BA260E360994A9A4BA261E36192
:10D4100042460023D356266167615A1C0ED0022B68
:10D420000CD0201C00F0EEFF002800D17BE0236A26
:10D43000002B03D001F03CF9236A0360A269E36981
:10D4400002920393BFE700980199884B864A01F046
:10D4500039FA002822D0301C391C844B824A01F052
:10D4600031FA051E2CD0012304938C4B04AC63606D
:10D4700000232362009A019BA260E3607B4B7A4AFF
:10D48000A261E36142460023D35626616761002B07
:10D49000C7D0774A774BA261E361CFE7201C291CF4
:10D4A00000F0A8FF8146002842D0201C291C6F4BA9
:10D4B0006D4A01F007FA00286CD10294039582E7C7
:10D4C000301C391C00F096FF002800D17BE7301C8F
:10D4D000391C664B644A01F0FBF9002800D172E761
:10D4E000012304936D4B04AC6360009A019BA2601E
:10D4F000E36043461978256226616761002900D1FF
:10D500007AE05D4A5D4BA261E36102293CD101F002
:10D51000CFF821230360236A002B8FD001F0C8F8D5
:10D52000226A02608AE701F0C3F8212303607EE7E4
:10D530000098019900F05EFF0028B6D0301C391C1D
:10D5400000F058FF0028B0D0201C291CFFF7F0FE87
:10D5500004AC002855D101230493504B2062636032
:10D56000009A019BA260E36043461D7826616761D3
:10D57000002D41D03D493C48021C0B1C02F000FB31
:10D58000A061E161022DC2D0201C00F03BFF002809
:10D59000C1D1BCE70098019900F02CFF02940395DB
:10D5A000002800D10FE7301C391C00F023FF029443
:10D5B0000395002800D106E704AC042304932661F8
:10D5C0006761364B636000232362009A019BA2606F
:10D5D000E360264B244AA261E36142460023D3560E
:10D5E000022B04D0201C00F00DFF002893D101F085
:10D5F0005FF8222303608EE71C4B1B4AA261E361A4
:10D60000C2E703230493254B2661676163604B46A1
:10D610002362009A019BA260E36042460023D35636
:10D62000002B3DD1164A174B00980199A261E36186
:10D630000E4B0D4A01F04CF90028CED0124A134B84
:10D64000301C391C02F006FF061C0F1C00F0E4FE23
:10D65000321C3B1C01F036F90028BED10C4A0D4BA0
:10D66000A261E361B9E7C0460000000000000000CD
:10D67000000000000000F03F000000000000F0FF8C
:10D68000000000E0FFFFEF47000000000000E03F67
:10D69000000000E0FFFFEFC710280020941E0200EA
:10D6A000104B0F4A00980199A261E3610E4A0F4B9B
:10D6B00001F00EF9002890D00D4A0E4B301C391C99
:10D6C00002F0C8FE061C0F1C00F0A6FE321C3B1C1C
:10D6D00001F0F8F8002800D07FE7074A074B7AE707
:10D6E000000000000000F07F0000000000000000CB
:10D6F000000000000000E03F000000000000F0FF1C
:10D70000F0B55F4656464D464446F0B499464B4602
:10D710005C00934664088FB00D1C0F1C5A46211CF8
:10D720000090061C824602935846114337D0690088
:10D73000490888466849049588452BDC28D0664905
:10D740008C4227DC00D180E0002108910499002957
:10D7500000DA7EE0002833D15F4B9C4200D196E096
:10D760005E4B9C426AD002988023DB05984201D12F
:10D7700000F0E1FB5A4B0299994221D1049A002A08
:10D780001EDB291C009800F04BFD061C0D1C08E058
:10D79000002ED4D0534A131C434433430AD14F4D77
:10D7A0000026301C291C0FB03CBC90469946A2466E
:10D7B000AB46F0BD4C4800F027FE061C0D1CF0E700
:10D7C0000098291C00F012FE534606908C46002B50
:10D7D00020D0FB0F013B0493049E089B33436AD087
:10D7E000424B9C4200DC8DE0414B9C4201DC00F04E
:10D7F00035FC404B984500DC89E3029E002E00DC9E
:10D8000089E334493248021C0B1C02F023FE061C3B
:10D810000D1CC6E74046002804D0304BBA009208E1
:10D820009A42D6D1029C002C01DA00F0C4FB049E7F
:10D83000002E00DA73E3069E6546B2E7029C002CD8
:10D8400001DA00F076FC009EABE7002800D17BE710
:10D85000A0E729498C422BDC26498C4200DC79E781
:10D8600021158C4625498C4501DC00F086FC244BB3
:10D8700061465B1A111CD9400A1C9A40824200D0B2
:10D8800068E701220A4002239B1A089362E7154ABF
:10D89000131C4344334300D181E7164B984500DC09
:10D8A0007FE3029C002C00DA35E35E464D4678E7C4
:10D8B000022108914EE70098009A291C2B1C03F0C6
:10D8C00059F8021C0B1C02F05BF9061C0D1C68E7E2
:10D8D0009C7500883CE4377E0000F07F0000F03F3C
:10D8E0000000E03F000010C0C81E02000000E04140
:10D8F0000000F043FFFFEF3FFFFF3F431304000032
:10D9000033040000E24A0023904509DC0698C54B29
:10D91000C34A614602F09EFD3523069088465B426D
:10D920004046DC4902155218D21892460303DA4DDC
:10D93000DA4A1B0B1D43934201DC00F0F6FBD84A88
:10D94000934201DC00F036FCD64B01229244ED18E4
:10D9500000240021069A2B1C06920793C900D24B83
:10D9600088464344186859680A900B910A9A0B9BA1
:10D970000698079902F0FEFF0A9A0B9B061C0F1CE3
:10D980000698079901F0E0FD021C0B1CA648A74968
:10D9900002F0F6F80C900D910C9A0D9B301C391C7E
:10D9A00002F058FD029003910B1C802189056D1037
:10D9B000802000220D430003009201939C4A9D4B5E
:10D9C00029180B1900980199141C1D1C02F042FD26
:10D9D000021C0B1C301C391C02F0CCFF0A9A0B9B5A
:10D9E000061C0F1C201C291C02F0C4FF021C0B1C6F
:10D9F0000698079902F0BEFF021C0B1C00980199C3
:10DA000002F028FD021C0B1C301C391C02F0B2FF76
:10DA10000C9A0D9B02F01EFD069007910298039947
:10DA2000021C0B1C02F016FD041C0D1C221C2B1CDE
:10DA300002F010FD804A814B061C0F1C201C291C83
:10DA400002F008FD7E4A7F4B01F07EFD221C2B1C5C
:10DA500002F000FD7C4A7D4B01F076FD221C2B1C60
:10DA600002F0F8FC7A4A7B4B01F06EFD221C2B1C65
:10DA700002F0F0FC784A794B01F066FD221C2B1C69
:10DA800002F0E8FC764A774B01F05EFD021C0B1CAD
:10DA9000301C391C02F0DEFC029A039B041C0D1C96
:10DAA0000098019901F050FD069A079B02F0D2FC04
:10DAB000221C2B1C01F048FD061C0F1C009801992C
:10DAC000021C0B1C02F0C6FC674A684B0A900B91C3
:10DAD00001F03AFD321C3B1C01F036FD00240D1C08
:10DAE000221C009801992B1C02F0B4FC221C2B1C58
:10DAF000009001910698079902F0ACFC5A4A5B4BE2
:10DB000006900791201C291C02F034FF0A9A0B9BF7
:10DB100002F030FF021C0B1C301C391C02F02AFFE3
:10DB2000029A039B02F096FC021C0B1C06980799B4
:10DB300001F00AFD061C0F1C321C3B1C00980199C9
:10DB400001F002FD4A4A4B4B0024201C0D1C02F040
:10DB500081FC494A494B06900791201C291C02F080
:10DB600079FC009A019B02900391201C291C02F071
:10DB700001FF021C0B1C301C391C02F0FBFE404A4A
:10DB8000404B02F067FC021C0B1C0298039901F049
:10DB9000DBFC464B43441A685B6801F0D5FC061C6D
:10DBA00050460F1C03F010FA0D1C4149041C41445F
:10DBB0000A684B680698079902920393321C3B1C33
:10DBC00001F0C2FC029A039B01F0BEFC221C2B1C3C
:10DBD00001F0BAFC00220B1C00920193101C2B1CBC
:10DBE000221C02F0C7FE029A039B02F0C3FE069AB3
:10DBF000079B02F0BFFE021C0B1C301C391C02F0FC
:10DC0000B9FE02900391089B049C013B234300D082
:10DC1000C2E11D481D49049005914BE0C046C04635
:10DC20000000000000004043000000000000F03F42
:10DC30000000000000000000EF4E454A287ECA3F69
:10DC400065DBC9934A86CD3F01411DA96074D13F70
:10DC50004D268F515555D53FFFAB6FDBB66DDB3F82
:10DC6000033333333333E33F000000000000084048
:10DC7000000000E009C7EE3FF5015B14E02F3EBE57
:10DC8000FD033ADC09C7EE3F000000000000F0BFD2
:10DC9000FFFF0F0001FCFFFF0000F03F8E98030024
:10DCA00079B60B000000F0FFB81E0200A81E0200AB
:10DCB000981E02000026321C4B465846494602F088
:10DCC00059FE009A019B02F0C5FB029A039B041CBB
:10DCD0000D1C5846494602F0BDFB021C0B1C201CC3
:10DCE000291C01F031FC009A019B02900391301C29
:10DCF000494602F0AFFB00900191009A019B029807
:10DD0000039901F021FCCC4B041C0D1C0F1C884610
:10DD1000994200DC19E1C94A8B18034300D012E292
:10DD2000AC4BAB4A0298039901F00EFC009A019BA0
:10DD300008900991201C291C02F01CFE021C0B1CDF
:10DD40000898099900F0D8FDA946002800D0FAE10A
:10DD50004A46BB4B802411156403C918201C084196
:10DD6000C11948009C4A9D4B0B1C0903B54E090B79
:10DD7000400D0C43B4498519B44E081A04412E4194
:10DD80004046B343A146002800DA1EE200980199FC
:10DD900002F0F0FD00900191009A019B0298039916
:10DDA00001F0D2FB4A46120590460024201C8C4A02
:10DDB0008C4B0D1C0F1C02F04DFB009A019B089030
:10DDC0000991201C291C02F0D5FD021C0B1C029895
:10DDD000039902F0CFFD844A844B02F03BFB844A56
:10DDE000844B261C0D1C041C391C301C02F032FB19
:10DDF000021C0B1C201C291C01F0A6FB041C0D1C82
:10DE0000221C2B1C0898099901F09EFB089A099B7B
:10DE1000061C0F1C02F0AEFD021C0B1C201C291C52
:10DE200002F0A8FD321C009001913B1C301C391CF3
:10DE300002F010FB704A714B041C0D1C02F00AFB2F
:10DE40006F4A704B02F096FD221C2B1C02F002FB65
:10DE50006D4A6E4B01F078FB221C2B1C02F0FAFA83
:10DE60006B4A6C4B02F086FD221C2B1C02F0F2FA6E
:10DE7000694A6A4B01F068FB221C2B1C02F0EAFA8B
:10DE8000021C0B1C301C391C02F074FD041C0D1C00
:10DE9000221C2B1C301C391C02F0DCFA604A614B3E
:10DEA00002900391201C291C02F064FD021C0B1C33
:10DEB0000298039901F064FE009A019B041C0D1C5A
:10DEC000301C391C02F0C6FA009A019B01F03CFBA1
:10DED000021C0B1C201C291C02F04CFD321C3B1C9C
:10DEE00002F048FD0B1C021C4F48504902F042FD55
:10DEF000464673181C15002C00DC60E1021C0498D7
:10DF0000059902F0A7FA061C0D1CFFF74AFC029CBB
:10DF1000002C00DA75E400260025FFF742FC4C488F
:10DF2000089C031C4344234300D01AE10698614631
:10DF3000069A6346C3E4291C2B1C0098009A02F041
:10DF400089FA061C0D1CFFF72CFC4B005B08994658
:10DF5000404B994500DC25E13F480B1823430DD188
:10DF6000009A019B201C02F005FD021C0B1C02986C
:10DF7000039900F0B7FC002800D1E9E62C4A2D4BAC
:10DF80000498059902F066FA294A2A4B02F062FACF
:10DF9000061C0D1CFFF705FC2349244A0491059239
:10DFA00088E6029E002EB6DA80200006051C5E463A
:10DFB0004D44FFF7F6FB069A63461B481B4901F0E8
:10DFC000DFFD06908C46FFF732FCC046C046C046D7
:10DFD000FE822B654715973C000000000000000002
:10DFE00000000000432EE63FEF39FAFE422EE63FE6
:10DFF000396CA80C615C20BED0A4BE726937663E45
:10E00000F16BD2C541BDBB3E2CDE25AF6A56113F38
:10E0100093BDBE166CC1663F3E5555555555C53F1F
:10E020000000000000000040000000000000F03F81
:10E0300059F3F8C21F6EA501FFFF8F40000070BFAB
:10E0400002FCFFFF01FCFFFF13040000FFFF0F00B5
:10E05000000010C0FFCB904000346F3F6C4B9845E0
:10E0600000DC54E76B4B984501DDFFF7C6FB6146CA
:10E07000584B574A069802F07DFC574A574B041CF0
:10E080000D1C02F0E7F9564A564B061C0F1C201CCB
:10E09000291C02F0DFF9221C009001912B1C201C8E
:10E0A000291C02F0D7F9504A504B02900391201CD2
:10E0B000291C02F0CFF9021C0B1C4D484D4902F0FF
:10E0C00059FC221C2B1C02F0C5F9021C0B1C4A48EF
:10E0D0004A4902F04FFC021C0B1C0298039902F003
:10E0E000B9F9474A474B02F0B5F9021C0B1C0098DE
:10E0F000019902F03FFC041C0D1C221C2B1C301C3F
:10E10000391C01F021FA00220B1C00920193101C13
:10E110003B1C321C02F02EFC021C0B1C201C291C78
:10E1200002F028FC029003916DE500240021FFF726
:10E1300011FC2B1C27492648009A01F021FD061CE2
:10E140000D1CFFF72EFB304A304B0498059902F066
:10E1500081F92D4A2D4B02F07DF9061C0D1CFFF7AD
:10E1600020FB089E012E01D0FFF765FB80200006F2
:10E17000051C069E6544FFF714FB002801D0FFF73D
:10E180001FFB6346C91A221C0A41101C8840A0428A
:10E1900001D0FFF7E5FA01231A4002239B1A0893E6
:10E1A000FFF7DEFA1C4B994500DDD1E500239846C8
:10E1B0009946FAE58024E4020121FFF7CBFB4A46A9
:10E1C00000F0D6F9021C0B1C99E66442A146DDE57D
:10E1D000000000000000F03F000000604715F73F1E
:10E1E00044DF5DF80BAE543E000000000000D03F5D
:10E1F000555555555555D53F000000000000E03FEE
:10E20000FE822B654715F73F9C7500883CE4377EFE
:10E21000FEFFEF3F0000F03F0000E03FC046C04679
:10E22000F0B55F4656464D464446F0B46C4E0D1C64
:10E23000371C83B0041C021C0B1C2F40B74200D1BA
:10E24000ADE0002900DC8BE02F1500D194E0654D96
:10E2500009038023090B5B037F190B43FE0700D5DD
:10E2600070E07F10C20FB8465B00002780219B182A
:10E270001624420000970020890345189D4204DCC3
:10E2800068185B1B009D6D180095D50F5B00013C65
:10E290005B1952004908002CEFD1802100260906A5
:10E2A00020250196B446894609E0834246D0D40F22
:10E2B0005B00013D1B1952004908002D1CD0664629
:10E2C0008C198342F1DD6718E60FBC46F6078246DB
:10E2D0004E452CD01B1AA24280414042019F1B1A7E
:10E2E000121B7F18D40F5B00013D019750461B198C
:10E2F00052004908002DE2D1134328D10198430868
:10E30000009D394E6A109219ED0702D58021090649
:10E310000B4340460705B9181C1C0D1C201C291C6A
:10E3200003B03CBC90469946A246AB46F0BDFF0FF9
:10E33000FF077E427E41B2468244CBE79442C2D977
:10E34000181CB4E7C20F5B009B18400089E70199D5
:10E3500001312FD0019C012323401B195B08CFE71B
:10E360006B005B081A43D9D0002700292BD1C10AC2
:10E37000153F40050029FAD08022520311421ED1D8
:10E380000023490001331142FBD001242022E41A6A
:10E39000D21A3F19041CD4402143984057E7201C4F
:10E3A000291C02F057F8221C2B1C01F0CDF8041C8C
:10E3B0000D1CB3E7009A002301320092A0E720224F
:10E3C00001240023E5E7221C2B1C201C291C02F041
:10E3D000D1FA021C0B1C01F0D3FB041C0D1C9DE7A1
:10E3E0000000F07F01FCFFFF0000E03F4B005908F8
:10E3F0007047C0464800024B4008C018C00F704725
:10E400000000108000207047024901487047C04654
:10E41000000000000000F87FF0B546464F46C0B44B
:10E42000CA0F90464B004D4A5B0D9E1883B0041CEA
:10E430000D1C8C46071C132E3BDC002E5CDB484F6A
:10E44000021C37413B1C0B400343994648460B1CBA
:10E45000002827D07B081A1C0A4022430027002AE4
:10E460000AD0132E00D176E0291C80229943D202D3
:10E470000B1C324113439C464046C1003948634659
:10E4800041180C684D683A1C201C291C01F05CF8EE
:10E490000090019100980199221C2B1C02F06AFA4D
:10E4A000021C0B1C101C191C03B00CBC9046994696
:10E4B000F0BD332E0BDD0B1C8021021CC9008E42E7
:10E4C000F0D1291C01F040F8021C0B1CEAE7264A97
:10E4D0000126D2187642D64091460B1C021C0642F9
:10E4E000E0D076080642C7D08023B443DB05484617
:10E4F0000341271C1F43BFE74E0076080643021C5A
:10E500000B1C002ECED00903090B014348420143E6
:10E5100080200003090B0140680C40040B1C0343DE
:10E520004046C1000F4841180C684D68291C201C4A
:10E5300001F00AF800900191009801992B1C221C0F
:10E5400002F018FA0D1C4146021CC8076900490870
:10E55000031C0B43A6E780273F0685E701FCFFFF6E
:10E56000FFFF0F00D01E0200EDFBFFFF00000000C8
:10E57000F8B53D4E171C331C0B40041C0D1C0A1C27
:10E580001B1525D14B005B0818431ED0201C291CED
:10E590002E4B2D4A01F05EFF344B041C0D1C9F4294
:10E5A00031DB0E4033150A1C363B3149DB198B42F7
:10E5B00015DD221C2B1C2648264900F061F8244A50
:10E5C000244B01F047FF041C0D1C291C201CF8BD26
:10E5D00028498B421ED02649DB198B42E9DC002BEF
:10E5E00005DD25491B050A401D1C1543EDE7191CD7
:10E5F000353118DA214B9F42DBDC17481749221CC2
:10E600002B1C00F03DF8144A144B01F023FF041CAE
:10E610000D1CDAE7201C291C221C2B1C00F094FF87
:10E62000041C0D1CD1E7144936331B050A401D1C80
:10E630001543201C291C0A4A0A4B01F00BFF041C3D
:10E640000D1CC2E7C046C046000000000000504359
:10E650009C7500883CE4377E59F3F8C21F6EA50113
:10E66000000000000000903C0000F07FB03CFFFF85
:10E67000FE070000FF070000FFFF0F8050C30000EF
:10E6800030B5DA0FD2074B005B08111C194330BDBF
:10E6900038B5051C05480C1C131C002804D00220AA
:10E6A000291C221C00E000BF38BDC046000000004D
:10E6B000014B18687047C04674280020084B10B5FD
:10E6C000041C002B02D0002100E000BF054B18689D
:10E6D000836A002B00D09847201CFDF7DDFFC04661
:10E6E00000000000401F020070B50E4B0E4D0024CC
:10E6F000ED1AAD101E1CAC4204D0A300F35898478D
:10E700000134F8E703F08EF8084B094D0024ED1AA8
:10E71000AD101E1CAC4204D0A300F358984701343E
:10E72000F8E770BD7828002078280020782800209D
:10E7300084280020031C8218934202D019700133F0
:10E74000FAE77047002934D00123002210B4884230
:10E750002CD301242407A14204D2814202D2090110
:10E760001B01F8E7E400A14204D2814202D2490031
:10E770005B00F8E7884201D3401A1A434C08A042D4
:10E7800002D3001B5C0822438C08A04202D3001B6A
:10E790009C082243CC08A04202D3001BDC08224381
:10E7A000002803D01B0901D00909E3E7101C10BCA5
:10E7B0007047002801D00020C04307B4024802A1DE
:10E7C0004018029003BDC046D90000000029F0D0D7
:10E7D00003B5FFF7B9FF0EBC4243891A1847C0467C
:10E7E000002941D010B4041C4C40A446012300224F
:10E7F000002900D54942002800D5404288422CD348
:10E8000001242407A14204D2814202D209011B0142
:10E81000F8E7E400A14204D2814202D249005B0041
:10E82000F8E7884201D3401A1A434C08A04202D3A9
:10E83000001B5C0822438C08A04202D3001B9C08EA
:10E840002243CC08A04202D3001BDC08224300284C
:10E8500003D01B0901D00909E3E7101C6446002C12
:10E8600000D5404210BC7047002806D003DB0020D2
:10E87000C043400801E08020000607B4024802A11E
:10E880004018029003BDC046190000000029EBD0DB
:10E8900003B5FFF7A7FF0EBC4243891A1847C046CD
:10E8A0007047C0468446101C62468C46191C63465D
:10E8B00000E0C0461FB501F04FFD002801D4002143
:10E8C000C8421FBD10B501F07FFC4042013010BDB1
:10E8D00010B501F041FD002801DB002010BD012032
:10E8E00010BDC04610B501F037FD002801DD002045
:10E8F00010BD012010BDC04610B501F0AFFC0028CE
:10E9000001DC002010BD012010BDC04610B501F093
:10E91000A5FC002801DA002010BD012010BDC04672
:10E920008446081C6146FFE71FB500F05BFA00282B
:10E9300001D40021C8421FBD10B500F0E1F94042EA
:10E94000013010BD10B500F04DFA002801DB0020A9
:10E9500010BD012010BDC04610B500F043FA0028DC
:10E9600001DD002010BD012010BDC04610B500F033
:10E97000F1F9002801DC002010BD012010BDC046C7
:10E9800010B500F0E7F9002801DA002010BD0120E1
:10E9900010BDC046002B11D1002A0FD1002900D193
:10E9A000002802D00021C943081C07B4024802A174
:10E9B0004018029003BDC046E9FEFFFF03B468465D
:10E9C00001B5029800F05CF8019B9E4602B00CBCB9
:10E9D0007047C0469C460304F0B51B0C17043F0C5F
:10E9E000150C1E1C041C000C7E436B43474345431F
:10E9F000FB18300C1818874202D980235B02ED18EF
:10EA0000030CED1863465C434A433604360CA118E8
:10EA1000000480194919F0BD9E2110B5C905041CD8
:10EA2000FFF7AEFF002803D1201C00F0C1FC10BD91
:10EA30009E21C905201C00F04BFB00F0B9FC80238F
:10EA40001B06C018F3E7C046F0B583B0161C1F1CA8
:10EA50000090019102F048FB041C0D1C221C2B1C91
:10EA6000301C391CFFF7B6FF009A019B121A8B412C
:10EA70000899201C0A604B60291C03B0F0BDC046F9
:10EA8000F0B583B0141C1D1C0090019102F008FD2C
:10EA9000221C2B1C061C0F1CFFF79CFF009A019BDD
:10EAA000121A8B410899301C0A604B60391C03B064
:10EAB000F0BDC046F0B55F4656464D464446F0B4FC
:10EAC00046024500C00F85B00F1C760A2D0E804609
:10EAD00041D0FF2D26D08024240400212643F600B7
:10EAE0007F3D89468B46F90F7C027800640A000E50
:10EAF00000918A463CD0FF2834D080231B041C435D
:10EB00000023E4007F380193009F4346019A7B4035
:10EB100049469C4611430F2900D971E0764F890080
:10EB20007F58BF46002E3ED10822022391469B46C5
:10EB3000D9E75A46341CC24601920199022937D0BE
:10EB4000032900D1CFE0012900D0ABE053460B40B0
:10EB50000022002632E0002E19D10421012289462C
:10EB60009346C0E7221C531E9A4102320192CBE722
:10EB700001270197002CC7D0201C02F097FA431FF1
:10EB80009C4076235B420021181A0191BCE7301C9F
:10EB900002F08CFA7625431F9E406D4200232D1A09
:10EBA00099469B469FE70C23032199468B469AE79B
:10EBB000D446012367463B40FF2200267602D20559
:10EBC000700ADB071043184305B03CBC90469946D9
:10EBD000A246AB46F0BD80260023F603FF22EDE7F8
:10EBE00000220026EAE78020C00306423BD0044210
:10EBF00039D1061C26437602760A009BFF22DDE708
:10EC0000281A039076016401A64239D3361B1A22D2
:10EC100001230120311C5B007600002901DBB44296
:10EC200001D8361B0343013A002AF3DC741EA641C7
:10EC3000341C1C43039A7F32002A27DD630704D06B
:10EC40000F232340042B00D00434270103D52B4B82
:10EC5000039A1C408032FE2A0BDD012361460B40E3
:10EC6000FF220026AAE706437602760A4346FF22E1
:10EC7000A4E7A40101236746660AD2B23B409DE7A0
:10EC8000039F1B22013F03970023C2E77E23039FBC
:10EC90005B42DB1B1B2B07DD012361460B4000227F
:10ECA00000268BE7D446C5E7221CDA40039B9E333F
:10ECB0009C40231C5C1EA34113435A0704D00F221F
:10ECC0001A40042A00D004335F0105D501236146B0
:10ECD0000B400122002671E79E016246012313408A
:10ECE000760A00226AE78026F60326437602760A31
:10ECF0005346FF2262E7C046441F0200FFFFFFF7B2
:10ED00004A02430270B55C0A550A43004A001B0ED2
:10ED1000C60F120EC90FFF2B05D0FF2A08D0012005
:10ED200093420BD070BD0120002CFBD1FF2AF6D1FD
:10ED30000120002DF6D101209342F3D1AC42F1D154
:10ED40008E4205D0002BEDD1201C441EA041E9E7E6
:10ED50000020E7E74A024302F0B55C0A550A430087
:10ED60004A001B0EC60F120EC90FFF2B31D0FF2A0F
:10ED700034D0002B16D1604260418446002A14D062
:10ED8000002820D18E4217D1934215DC04DBAC421F
:10ED900012D80020AC4212D270427041404201238E
:10EDA00018430CE0002AEDD194466F426F41604653
:10EDB000002805D1002FE5D0704201231843F0BD93
:10EDC0000020002FFBD14842484140420123184314
:10EDD000F5E7002CCBD002204042F0E7002DC8D050
:10EDE000F9E7C0464A024302F0B55C0A550A4300FF
:10EDF0004A001B0EC60F120EC90FFF2B27D0FF2A89
:10EE000029D0002B10D0002A15D194466F426F41B3
:10EE10006046002815D00020002F04D14842484108
:10EE2000404201231843F0BD604260418446002AFD
:10EE3000ECD00028F2D18E4211D070420123184349
:10EE4000F1E7002FF7D0704201231843EBE70220CF
:10EE5000002CE8D1D3E70220002DE4D1D1E7934282
:10EE6000EBDC04DBAC42E8D80020AC42DBD27042E1
:10EE70007041404201231843D5E7C046F0B55F46D4
:10EE800056464D464446F0B44402460083B00F1C3B
:10EE9000640A360EC50F002E41D0FF2E22D08023EB
:10EEA0001B0400201C43E4007F3E82468046391C40
:10EEB0004B007F02C90F7F0A1B0E8B463BD0FF2BF6
:10EEC00034D0802212041743FF007F3B00215A46B2
:10EED0006A40019252460A430F2A63D87A48920048
:10EEE00082589746002C3FD108220223924698462A
:10EEF000DDE70195404602282AD1019A01251540F7
:10EF0000FF2300246402DB05600AED071843284351
:10EF100003B03CBC90469946A246AB46F0BD002CDF
:10EF200027D10420012282469046C0E7391C4A1EA0
:10EF300091410231CBE70121002FC8D0381C02F0EB
:10EF4000B5F8431F9F4076235B421B1A0021BEE7A2
:10EF5000032800D1AEE001284FD10198424610406D
:10EF6000C5B200230024CDE70C2303209A46804637
:10EF70009DE7201C02F09AF87626431F9C407642BB
:10EF80000023361A9A46984691E780240025E40328
:10EF9000FF23B7E75B463C1C01938846AAE73C1C6D
:10EFA0008846A7E7250C24043A0C240C3F04F618E5
:10EFB0003F0C211C231C794353436F435543FB18DB
:10EFC0000A0C9B18B1469F4202D980225202AD180A
:10EFD00009041A04090C521894011B0C611E8C417F
:10EFE000920EED181443AD012C43230105D50122E7
:10EFF00063080120144081441C434B467F33002B9F
:10F000002DDD600704D00F222240042A00D00434F2
:10F01000220103D52D4B1C404B468033FE2B17DDC0
:10F02000019B01251D400024FF236BE78020C003C6
:10F03000044208D0074206D1041C3C436402640A1F
:10F040005D46FF235EE704436402640AFF2359E739
:10F050000198A4010125640ADBB2054052E77E2332
:10F060005B424A469B1A1B2B05DD019B01251D4077
:10F070000024002346E7221CDA404B469E339C4086
:10F08000231C5C1EA3411343580704D00F221A40CF
:10F09000042A00D004335A0105D5019B01251D40E7
:10F0A000002401232EE701989C010125640A0540F4
:10F0B000002327E78027FF03019B3C4364020125CF
:10F0C0001D40640AFF231DE7841F0200FFFFFFF7B6
:10F0D000F8B5C20F430244004D024800240E161C2E
:10F0E0009B09000EC90FAD09FF2800D17EE0012762
:10F0F00079408A4258D0221A002A00DC89E0002890
:10F100001BD1002D00D075E0580704D00F221A4003
:10F11000042A00D00433590138D50134FF2C00D122
:10F1200083E09B0101225B0AE0B232405B02C4052E
:10F13000580AD20720431043F8BDFF2CE4D08021A9
:10F14000C9040D431B2A00DD2DE1291C2020D140DC
:10F15000821A95406A1E95410D435B1B5801D3D519
:10F160009B019F09381C01F0A1FF421F9740944268
:10F1700060DC141B1F231B1B3A1C9F40611C3B1CA3
:10F18000CA405F1EBB4113430024BDE70122DB08D8
:10F19000E0B23240FF2C04D1002B7ED08021C90385
:10F1A0000B435B025B0AC1E7211A002946DD0028F8
:10F1B00026D0FF2CA8D08020C00405431B2900DDE9
:10F1C000EFE0281C2027C840791A8D40691E8D4128
:10F1D00005435B19590197D50134FF2C5CD0734965
:10F1E00001221A400B405B0813438DE7002D00D02D
:10F1F0007FE77CE7013A002AAFD0FF2CA2D183E75A
:10F20000002D00D180E701390029E2D0FF2CD5D1B3
:10F210007AE7002A1ED1621CD2B2012A4EDD5F1BA2
:10F220007A0126D5EF1A0E1C9CE701223240FF20FE
:10F2300000237BE75D4BA41A3B4065E7002946D1DC
:10F24000611CC8B201282ADDFF2925D0EB185B0814
:10F250000C1C59E7002C13D0FF2818D08024E4049C
:10F26000524223431B2A4DDD0123EB1A041C0E1CC2
:10F2700074E7002F00D075E700220020002390E7FC
:10F28000002B3BD0D243002AEFD0FF28EAD12B1C21
:10F29000FF240E1C38E70022FF20002346E7002C45
:10F2A0005AD1002B77D0002D00D12DE75B195801E2
:10F2B00000D429E73D4A0124134025E7002C15D14D
:10F2C000002B2FD1002DD7D02B1C0E1C1CE7002C9F
:10F2D00021D1002B53D0C943002904D0FF284BD0A3
:10F2E0001B294FDD01235B19041C73E7002B22D17E
:10F2F000002DD0D02B1C0E1CFF2405E72B1C041C5A
:10F300000E1C01E71C1C2026D440B21A93405A1E42
:10F3100093412343A9E7FF282ED08024E4044942E7
:10F320002343DDE7002D00D1EEE65A1B500134D512
:10F33000EB1A0E1CE8E6FF24002D00D1E4E6802243
:10F34000DB08D203134204D0ED08154201D12B1C77
:10F350000E1CDB00FF24D7E6002B0DD0FF24002D70
:10F3600000D1D1E68022DB08D2031342F1D0ED08B0
:10F370001542EED12B1CECE72B1CFF24C4E62B1C02
:10F38000041CC1E61C1C2027CC40791A8B40591E56
:10F390008B412343A7E72B1CB6E6131E00D0B3E630
:10F3A0006AE7012515E70125D7E6C046FFFFFFFB09
:10F3B0004302590A4300C20F1B0E00207E2B0DDDB5
:10F3C0009D2B0CDC802000040143952B0ADC962049
:10F3D000C31AD9404842002A00D1081C7047034B89
:10F3E000D018FBE7963B9940F4E7C046FFFFFF7F4C
:10F3F00070B5041E3CD0C60F00D04442201C01F062
:10F4000055FE9E23251C1B1A962B0CDC08388440C5
:10F410006402640ADBB2321C6402DB05600AD207B4
:10F420001843104370BD992B0ADD0522121A211CC6
:10F43000D1400A1C011C1B318D40691E8D411543B2
:10F44000052801DD421F9540164C2C406A0704D068
:10F450000F221540042D00D0043461010CD59F23E8
:10F46000181AFF281AD0A401640AC3B2321CD3E7C9
:10F47000002200230024CFE7E408FF2B04D064021D
:10F48000640ADBB2321CC7E7002C04D08020C00322
:10F4900004436402640A321CFF23BDE7321CFF23CD
:10F4A0000024B9E7FFFFFFFB10B5041E33D001F0C5
:10F4B000FDFD9E231B1A962B09DC0838844064024C
:10F4C000640ADBB26402DB05600A184310BD992BA5
:10F4D0000ADD0522121A211CD1400A1C011C1B3115
:10F4E0008C40611E8C411443052801DD421F94406D
:10F4F000144A2240610704D00F210C40042C00D094
:10F50000043251010AD59F23181AFF2816D09401FE
:10F51000640AC3B2D6E700230024D3E7D208FF2B46
:10F5200003D05402640ADBB2CCE7002A06D0802460
:10F53000E40314436402640AFF23C3E7FF230024A7
:10F54000C0E7C046FFFFFFFBF8B55F46564644469E
:10F550004D46F0B40C034D00CE0F610A440F214319
:10F56000C400180380465800400D8246D80F8446D8
:10F570004046400A530F0343D0006D0D371C8346AD
:10F580005246664500D19DE0AF1A002F00DC03E132
:10F59000002A38D1184300D0E4E0630709D00F23D4
:10F5A0002340042B05D0231DA342A4416442091922
:10F5B0001C1C080200D478E0CE4B6A1C9A4200D191
:10F5C00005E1CD4BE40819404807520549020443C0
:10F5D0000B0B520D371C002000211B03201C1C0BA1
:10F5E0000B0D1B05C54D2343520552081D40154305
:10F5F0006D006D08FF07291C39433CBC90469946B5
:10F60000A246AB46F8BDBB488542C6D08020000468
:10F610000343382F00DDECE01F2F00DD20E1202028
:10F62000C01B1A1C814682405846F840024394464B
:10F6300058464A469040421E9041FB406246024373
:10F640001F1CA21A9442A4416442C91B091B141C2A
:10F650000B02A2D549024F0A002F00D1C4E0381C8A
:10F6600001F024FD021C083A1F2A00DDB7E0282122
:10F67000091A201C9740C84007439440954200DD7A
:10F68000A9E0551B691C1F2900DDD8E01F22551B6E
:10F690003B1C221CAB40CA40AC40651EAC4113432E
:10F6A000CF401C43391C002577E74807E4086A056A
:10F6B000C908520D371C04438E4B9D4248D00903A4
:10F6C0000B0B88E7AA1A9446002A00DC98E0504603
:10F6D000002853D08748854200D15EE7802000048F
:10F6E00003436246382A00DDFDE01F2A00DD4BE1BE
:10F6F00020226046101A1A1C8240824691465846C3
:10F700006246D0404A460243904658465246904090
:10F71000421E9041424602436046C3401219A24233
:10F72000A441644259180919141C080200D434E792
:10F73000704B01359D4200D124E16F4B60081940A8
:10F74000012323401C1C0443CB071C43490824E726
:10F750000B1C234300D1C7E180231B030B431B0376
:10F760001B0B38E7013F002F64D15846221A944200
:10F77000A4416442C91A091B141C69E7584618437E
:10F7800000D10AE70122524294446046002800D08A
:10F79000C5E058460219C2E7002F72D1681C400527
:10F7A000400D012800DCDEE05A46A21A9442BF4117
:10F7B000C81A7F42C71B380200D488E05A46141B7F
:10F7C000A3459241591A52428F1A664644E7371CA4
:10F7D00000230024FFE64849AD1A3940DDE6271C26
:10F7E00028388740002449E7201C01F05FFC2030C6
:10F7F00038E75A461A43531E9A41D2B2002720E7EF
:10F80000002A00D0DDE0681C4205520D012A00DC10
:10F810008EE0384DA84200D1B3E05D462A19A242DD
:10F82000A441644259180919CC07520814434908E5
:10F83000051CB2E62F48854200D0EAE6ADE62B1C57
:10F840001F3B3A1CDA40131C20296DD03F22551B68
:10F85000AF403C43601E84411C43002100259CE6D0
:10F86000381C20381A1CC240101C202F5ED04022A9
:10F87000D71BBB405A461A43531E9A4102430027E6
:10F88000DFE6002D3CD01B4DAA4500D194E0802539
:10F890002D047F422943382F00DDADE01F2F00DD0E
:10F8A0002CE12025ED1B081C261CA840FE40AC4086
:10F8B0000643651EAC413443F9405D462C1BA3450D
:10F8C00092415B1A5242991A55466646C0E6131C8D
:10F8D0003B43141C002B00D0BEE60027002200256D
:10F8E00000210024E8E65A461A43531E9A41D2B238
:10F8F000002313E7FF070000FFFF7FFFFFFF0F80DC
:10F900000D1C254358D0FF43002F51D1041BA345A4
:10F910009241591A5242891A5546664698E69648C7
:10F92000854200D0DDE638E6002792E70023A1E714
:10F93000081C2043002D00D0C0E0002800D1FBE0CF
:10F940005846184300D128E658460219A242A4415D
:10F95000644259180919141C0A0200D41DE6874B89
:10F960000125194019E6081C2043002D39D1002833
:10F970006DD15946194300D1BDE0191C5C4666465D
:10F980000BE6051C2A1CABE7604620381A1CC24057
:10F9900060469146202800D1ABE04022121A9340E5
:10F9A0005A461A43531E9A414B461A430023B5E662
:10F9B000714DAA4500D06EE7191C5C465546664657
:10F9C000EBE5002D1ED10D1C254373D0D543002D32
:10F9D0006DD15C445C459241591852428918554694
:10F9E000A3E6002849D15946194300D196E0191CD5
:10F9F0005C466646604DD0E50C43611E8C41E4B226
:10FA000000215AE75C4DAA4554D05542802210048B
:10FA10000143382D00DD85E01F2D00DD95E020221B
:10FA2000501B0A1C84468240201CE840024390463A
:10FA300062469440601E844142461443E9405C445F
:10FA40005C459241CB185242991855466DE658468E
:10FA5000184300D1A1E55846271ABC429241C81A62
:10FA60005242801A02026AD55846041BA3459241AD
:10FA7000591A5242891A66468FE55846184336D0BD
:10FA80004807E40804438020C9080003014208D065
:10FA9000DD08054205D15946CA085C071443291CF4
:10FAA0006646630FC9001943E400334D75E5324AD9
:10FAB0009245AED1191C5C4655466EE5002837D0FC
:10FAC0005846184313D080254807E408C9082D0379
:10FAD00004432942E5D0D8082842E2D15D46EA082D
:10FAE0005C071443011CDCE70023002473E5224D6E
:10FAF00053E5002354E700270022F1E63D1C203D9A
:10FB00000A1CEA40151C202F31D04026F71BB940B3
:10FB10000C43611E8C412C430021CEE6164A00277F
:10FB2000151CDDE60C43611E8C41E4B2002186E722
:10FB3000191C5C46104D30E5191C5C462DE5031C74
:10FB40003B43D8D0011C3C1C27E5202040424019F3
:10FB50000A1CC2409046202D0BD04020451BA940D6
:10FB60000C43611E8C4145462C43002167E7002170
:10FB7000CEE70021F4E7C046FF070000FFFF7FFF4C
:10FB8000F0B5564644465F464D46F0B41F1C0B0385
:10FB90001B0B98464B0087B0041C81465B0DC80FB9
:10FBA000161C9A460090002B51D06A4B9A4531D0D2
:10FBB0008022414652030A43630FD2001A43664B28
:10FBC00090460025E20091469A44002402953B03AA
:10FBD0001B0B9B46FD0F7B00311C5B0D019560D01C
:10FBE0005C4A934254D08021584649030143720F26
:10FBF000C9001143584A8B469B18F1000020009A17
:10FC000004436A4003920F2C00D9ADE0534EA40088
:10FC10003459A746404604436ED1002102250824EA
:10FC2000884689460295D2E7009C0298C346494619
:10FC30000194022864D0032800D1ABE2012800D04F
:10FC400038E2019A002402400025A14660E04346C4
:10FC500023434AD04046002800D1C0E101F026FAF3
:10FC6000031E272B00DDB3E128210D1A211C083BC0
:10FC70004246E9409A400D1C1543221C9A40A84672
:10FC80009146374B00251B1A9A46002402959EE7A1
:10FC90005A4616430320002EB1D1B346002102205C
:10FCA000ADE75A4632431BD05B46002B00D18AE1B8
:10FCB000584601F0FBF9272800DD7DE12822171ABC
:10FCC000011C321C08395B46FA408B40171C1F434D
:10FCD000331C8B40BB46191C214B1B1A00208EE79E
:10FCE0000027BB460021012089E7002001250424CC
:10FCF0008046814602956AE703250C24029566E753
:10FD0000019C0394039D01222A400024114DA14629
:10FD1000002000212403260B0C0D2405114B344335
:10FD20002D0523402B435B005B08D207191C484676
:10FD3000114307B03CBC90469946A246AB46F0BD85
:10FD40000022802424039146024DE1E7002400258F
:10FD5000A146DDE7FF07000001FCFFFFC41F020012
:10FD60000DFCFFFFFFFF0F805546ED1A0495D845A7
:10FD700000D953E100D14EE1049C0025013C4E46E0
:10FD800004944746A946584603020C0E1C43090238
:10FD9000250C23041B0C0091381C291C0193FEF731
:10FDA000D1FC019983464143381C8A46291CFEF741
:10FDB0000DFD330C090419438A450CD95B4609191A
:10FDC000013B8C4200D947E18A4500D844E1022238
:10FDD0005242934409195346CB1A181C291C9846C1
:10FDE000FEF7B0FC071C0198291C78438246404668
:10FDF000FEF7ECFC36040B04360C33439A4509D964
:10FE00001B197A1E9C4200D924E19A4500D821E1B1
:10FE1000023F1B195E4632041743380CBB46009E56
:10FE2000009F51463F0C32045B1A5946BA46120CE9
:10FE30000F043F0C904651467A434F43414641439D
:10FE400056467043CF19160CBE19B14202D980270D
:10FE50007F02C019310C12043604120C4018B61877
:10FE6000834200D2C4E000D1BEE0191A4846861B86
:10FE7000B145BF417F42CF1BA74200D113E1291CEE
:10FE8000381CFEF75FFC019902904143381C8946FB
:10FE9000291CFEF79BFC330C0904194389450CD936
:10FEA000029B0919013B8C4200D9FFE0894500D82B
:10FEB000FCE0029F0919023F02974F46CF1B381CF6
:10FEC000291C0597FEF73EFC071C0198291C784366
:10FED00081460598FEF77AFC36040904360C0E4379
:10FEE000B14509D936197B1EB44200D9E0E0B145CD
:10FEF00000D8DDE0023F3619029D4946761A2904F2
:10FF000039430B0457460A0C1B0C404645465843E0
:10FF100055437B437A43EB18070CDB199D4202D90A
:10FF200080256D0252191D0C00041B04000C52198F
:10FF30001B18964235D300D1FCE001231943049EDF
:10FF4000994FF519002D00DCA1E0480709D00F23D7
:10FF50000B40042B05D00B1D8B42894149428B4439
:10FF6000191C5A46D20107D5904B5C46049E802747
:10FF70001C40FF00A346F5198D4B9D427ADD039C82
:10FF80000122224000248B4DA146C1E68024240397
:10FF9000474627424CD13C432403240B009A854D0D
:10FFA000B6E63619481EB4425ED9011C9642C4D149
:10FFB000009E9E42C1D1C2E7031C283B311C9940E0
:10FFC0008B46002188E6301C01F070F8203072E684
:10FFD000283B211C994000228846914651E6201C6E
:10FFE00001F064F820303BE60021B14500D33DE745
:10FFF000009F5A46B944B945BF417F423F19FB189B
:020000022000DC
:10000000013A9C421ED2984200D97EE000D1B5E070
:10001000191A93462AE7894500D8ADE64846464670
:1000200042467708D3074608C0071E438146AAE622
:100030005846204212D1044324032A1C240B89462B
:100040005C4D65E6A342E3D1009F4F45DBD9211A01
:1000500093460BE7171CDDE69B46BCE63C432403B6
:10006000240B009A534D53E6B24259D800D18AE08E
:10007000011C62E75F46C9087B07039E0B437C02B5
:100080006D0501229946240B6D0D324040E64A4B26
:10009000049FDB1B382B10DD039C0122224000242F
:1000A0000025A14634E60121494248E7029304E7CE
:1000B0001F1C21E7019C039441E71F2B40DC3F48B4
:1000C000049F0C1C3A1858469140DC409040204355
:1000D0000A1C511E8A41011C11435A46DA40131C66
:1000E000480709D00F220A40042A05D00A1D8A4277
:1000F000894149425B18111C1A0234D5039C012224
:10010000224000240125A14602E6009F0221494227
:10011000B9448B44B945894149420919CB18A4E631
:10012000009D881E6900A942AD416D422C19361907
:1001300000913AE7002B00D033E70024009437E722
:100140001F4A049C5D46121BD5402A1C202B1FD041
:100150001C4E5F46A3199F403B1C19434B1E9941FF
:1001600011430023BCE75A07C9080A43039F91467D
:100170005B0201221C0B3A400025C9E54E45C4D85C
:100180009346002172E6009F9F42C9D3011C0FE7EE
:100190000023E2E7802424035F463C432403240B2E
:1001A000019A8946034DB3E5FF030000FFFFFFFE00
:1001B000FE070000FF07000002FCFFFF1E04000016
:1001C000E2FBFFFF3E040000F0B55F4656464D4699
:1001D0004446F0B40D1C041C8046E80F8146180309
:1001E0000F03000B3F0B83B084461B480097490068
:1001F0005E00DF0F490D9246760DBB4681420CD062
:100200001548864210D00120B14215D003B03CBC45
:1002100090469946A246AB46F0BD009F0120274379
:10022000F4D10D488642EED1604602430120002AF7
:10023000ECD10120B142E9D1009B6345E6D1D04524
:10024000E4D1D94506D00029E0D11C43201C441E2E
:10025000A041DBE70020D9E7FF070000F0B55F46CB
:1002600056464D464446F0B4CD0FDE0FAC461D0356
:100270002D0BB146374E0F034C00AB465D00804658
:100280003F0B640D92466D0DB44232D0314EB542F3
:1002900035D0002C0ED1384341424141081C002D7D
:1002A0000BD0002919D1CC452DD0654668420123D9
:1002B000184318E0002DF6D1281C59460A43534232
:1002C0005341002806D1002BEDD06346584201234C
:1002D000184308E00020002B05D14A465042504107
:1002E0004042012318433CBC90469946A246AB4687
:1002F000F0BD3E1C0643C9D002204042F3E75E46F3
:100300001643C6D0F8E7AC4207DC0BDA6146484238
:100310004841404201231843E5E766467042012305
:100320001843E0E75F450AD80ED000205F45DAD2D7
:10033000654668426841404201231843D3E762465C
:10034000504201231843CEE7D045F8D80020D045CD
:10035000EED3C8E7FF070000F0B556464D464446C9
:100360005F46F0B40D1C83B0041C0190E80F814679
:1003700018030F03000B3F0B8446354800974900D4
:100380005E00DF0F490D9246760DB846814234D0AB
:100390002F48864236D0002918D0002E1FD1341C99
:1003A00067463A4353425341002C1FD00020002B94
:1003B00005D142465042504140420123184303B008
:1003C0003CBC90469946A246AB46F0BD009804431B
:1003D00060426041041C002EE2D00028E9D1C145F2
:1003E00015D04F46784201231843E8E7002BF6D09A
:1003F0004B46584201231843E1E7009F0220274360
:10040000DDD1C5E7674602201743D8D1C3E7B14223
:1004100004DD4A46504201231843D0E7B14207DBCE
:1004200000986045E4D80AD0009F00206745C6D2F6
:100430004F4678427841404201231843BFE7019A72
:100440005245D5D8019A00205245F1D3B7E7C046AE
:10045000FF070000F0B5564644465F464D46F0B4EF
:100460001F1C0B031B0B9A464B0087B0041C8046D5
:100470005B0DC80F161C02938146002B68D0694B98
:100480000299994232D08022534652031A43D20035
:10049000630F1A439246644AE0008918804602912D
:1004A000002400253B031B0B9B467800FB0F321CEE
:1004B000400D039300D175E05A4B984269D08022D9
:1004C000594652030A43730FD2001A43564B9346C0
:1004D000C018F200002303994E4671401C430F2CB4
:1004E00000D9A9E0514EA4003459A74653461C43F5
:1004F00000D087E00025AA46A84608240225D1E7B7
:100500004946022D6CD0032D00D117E2012D00D0F9
:1005100058E10D40EDB20024A9460023A04600207A
:10052000002125030A0D1C052D0B1205404B2A4303
:10053000134023435B004C465B08E207191C40460E
:10054000114307B03CBC90469946A246AB46F0BD6D
:100550005346234350D05346002B00D184E15046EC
:1005600000F0A4FD031E272B00DD76E128210D1AE3
:10057000211C083B5246E9409A400D1C1543221CA1
:100580009A40AA4690462B4B00241B1A0293002542
:1005900088E75B461E430323002E9CD1B34600220E
:1005A000022398E75B46334321D05846002800D108
:1005B0004EE100F07BFD272800DD42E128210F1AE3
:1005C000021C311C083A5B46F94093400F1C1F4344
:1005D000331C9340BB461A1C164B181A00237AE7AB
:1005E00001230B4000249946A0460E4B97E70027B5
:1005F000BB46002201236EE7002104248A46884678
:1006000001254FE70C2403254CE700258024A9464B
:100610002403A846034B82E7DA46904603991D1C43
:100620006FE7C046FF07000001FCFFFF0420020047
:10063000FFFF0F800DFCFFFF029F160C381804907F
:100640004046070C0004000C1204120C031C534318
:10065000041C3D1C7443554398463B1C734364196A
:10066000A44644460293230C63449D4204D9029D50
:10067000802464022D1902951D0C039545462C0417
:100680001B04240C1C1905945C46230C051C5843C0
:100690002404240C8446381C604365435F43814630
:1006A000CC44280C6044BB46814502D980277F0298
:1006B000BB442D04070C2D0C000440195546BC46C4
:1006C0002F04E3448446280C3D0C2F1C5743B846A6
:1006D0002F1C77434243B94647463F0C9144BA46E4
:1006E000D14446434A4502D980225202B6184F46A9
:1006F0003A0CB6183A0447463F043F0CB8462F1C44
:1007000067435D434443584365190190380C2D18E5
:100710004244B846AC4204D9019880235B02C01819
:100720000190039C029F201C6044C0196045A441B5
:1007300047466442A4462B043C049946240C4C448E
:10074000A046D8448018C246E2449042924157469F
:1007500052429146F219E245BF417F424B46BC46A8
:10076000D845BF41D4187F4263461F432D0C7F19E3
:10077000B24292414C45AD4152426D421543019EF9
:100780007D19AB19E20D5B02059F134342023A4308
:100790009A46531E9A41C30D101C1843640220430D
:1007A00080465046C0010DD5454601225646049C60
:1007B0006B082A401A43F30701341A43760804945D
:1007C0009046B246049E634FF319002B61DD40460C
:1007D00040070BD00F2244462240042A06D042464E
:1007E0000432424580414042824490465546ED01E4
:1007F00007D5594B5646049F80201E40C000B24684
:100800003B18564A934200DDEAE644465546E20864
:100810006807104301226C025B050A408046240BE6
:100820005B0D91467BE6DA4690461D1C69E6802406
:100830002403574627421CD13C432403240B484B36
:100840006DE6031C283B311C99408B460022C3E611
:10085000301C00F02BFC2030ADE6283B211C9940D9
:1008600000228A4690468EE6201C00F01FFC2030B5
:1008700078E65846204207D1044303992403240B09
:1008800089469046364B4AE63C432403240B344BBE
:1008900045E6344B049E9B1B382B06DD01230B40A1
:1008A00000249946A046002339E61F2B25DC049C32
:1008B0002D4D46466019524644468640DC408240F3
:1008C0005746301C2243DF40441EA04102433B1CDC
:1008D000540709D00F201040042805D0101D904265
:1008E000924152429B18021C1D021AD501230B4053
:1008F00000249946A046012311E61C48049C554655
:10090000001BC540281C202B16D0194E5746A21993
:1009100097403A1C43461A43531E9A410243002310
:10092000D6E758075B02D2081C0B01230B4010438B
:10093000994680460023F2E50022EBE78024240359
:1009400050460123044319402403240B8946044BD9
:10095000E5E5C046FF030000FFFFFFFEFE070000C5
:10096000FF07000002FCFFFF1E040000E2FBFFFF88
:100970003E040000F8B55F46564644464D46F0B486
:100980000C034D00CF0F610A440F2143C40018032C
:10099000DE0F8046B44646465800760A530F33436E
:1009A000D600C94A6D0DBA46400DB346904200D1FB
:1009B000EBE06246012672409446674500D1A1E013
:1009C0002F1A002F00DC08E100283BD158461843BD
:1009D00000D0E8E0600709D00F232340042B05D0A6
:1009E000231DA342A441644209191C1C0A0200D41D
:1009F00079E0B54B6A1C9A4200D109E1B34BE40897
:100A000019404807044349025205012750460B0B81
:100A1000520D0740002000211B03201C1C0B0B0D56
:100A20001B05AB4D2343520552081D4015436D0075
:100A30006D08FF07291C39433CBC90469946A246E5
:100A4000AB46F8BDA0488542C4D0802000040343D3
:100A5000382F00DDF0E01F2F00DD24E12020C01B37
:100A60001A1C5E468240FE40324394465A468240FB
:100A7000101C421E9041FB40624602431F1CA21AFA
:100A80009442A4416442C91B091B141C0A02A1D54B
:100A900049024F0A002F00D1C9E0381C00F006FBC4
:100AA000021C083A1F2A00DDBCE02821231C091A79
:100AB0009740CB401F439440954200DDAEE0551B6C
:100AC000691C1F2900DDDDE01F22551B3B1C221C79
:100AD000AB40CA40AC40651EAC411343CF401C4301
:100AE000391C002576E74807E4086A0501275646C1
:100AF000C908520D37400443734B9D4249D0090346
:100B00000B0B87E72A1A9446002A00DC9BE000289A
:100B100055D06D48854200D15CE780200004034336
:100B20006046382800DD09E11F2800DD50E16246FB
:100B30002020801A1E1C8640B1465E46D6404A469A
:100B400032435E4686409046301C421E90414246EB
:100B500002436046C3401219A242A441644259189C
:100B60000919141C080200D434E7574B01359D4283
:100B700000D142E1554B60081940012323401C1C61
:100B80000443CB071C43490824E71E4300D014E765
:100B90000FE70B1C234300D1CFE180231B030B4342
:100BA0001B031B0B36E7013F002F66D15E46A21BDD
:100BB0009442A4416442C91A091B141C66E75846B2
:100BC000184300D106E701267642B4446046002867
:100BD00000D0CAE05E463219BEE7002F7AD1681C09
:100BE0004005400D012800DCE3E05A46A21A944279
:100BF000BF41C81A7F42C71B3E0200D492E058464C
:100C0000041BA3459241591A52428F1AE24641E70A
:100C1000534601271F4000240023FBE62B49AD1A51
:100C20003940D7E6271C28388740002444E7201C99
:100C300000F03CFA203033E75A461A43531E9A41DB
:100C4000D2B200271BE7002A00D0E1E0681C46056D
:100C5000760D012E00DC91E01B4DA84200D1F7E09B
:100C60005E463219A242A441644259180919CC07C0
:100C7000520814434908051CACE61348854200D0CD
:100C8000E6E6A7E62B1C1F3B3E1CDE40331C20295A
:100C900070D03F22551BAF403C43601E84411C4333
:100CA0000021002596E6381C20381E1CC640301C4A
:100CB000202F61D04022D71BBB405A461A43531EF7
:100CC0009A4102430027DAE6FF070000FFFF7FFF9B
:100CD000FFFF0F80002D38D0B94DA84200D192E01F
:100CE00080252D047F422943382F00DDAAE01F2FE5
:100CF00000DD2CE12025ED1B0E1CAE40B046261C6D
:100D0000FE404246AC401643651EAC413443F940B8
:100D10005A46141BA34592415B1A5242991A051C6C
:100D2000E246B3E6131C3B43141C002B00D0B1E693
:100D300000270022002500210024DDE65A461A4340
:100D4000531E9A41D2B2002305E70D1C25435AD009
:100D5000FF43002F53D15A46141BA3459241591A01
:100D60005242891A051CE24690E69548854200D019
:100D7000D6E62FE600278FE700239EE7081C2043D6
:100D8000002D00D0C3E0002800D1F6E058461843FB
:100D900000D11FE658460219A242A44164425918E4
:100DA0000919141C0A0200D414E6864B01251940C7
:100DB00010E6081C2043002D3AD1002800D089E01D
:100DC0005946194300D1BFE0191C5C46E24601E6D2
:100DD000604620381A1CC2406646101C202E00D1E6
:100DE000B0E04022921B93405A461A43531E9A4148
:100DF00002430023AFE6724D00272A1C9BE7704D8B
:100E0000A84200D070E7191C5C46051CE246E1E5EB
:100E1000002D20D10D1C254375D0D543002D6FD159
:100E20005C445C459241591852428918051C99E668
:100E3000002835D159461943DDD0191C5C46E246DD
:100E40005F4DC7E50C43611E8C41E4B200215FE7B2
:100E5000051C021C6FE75A4DA84254D0554280220F
:100E600016043143382D00DD81E01F2D00DD91E0B7
:100E70002022561B0A1CB446B240261CEE403243C8
:100E8000904662469440661EB44142461443E9408F
:100E90005C445C459241CB1852429918051C61E6AE
:100EA000584618434CD04807E40804438020C9083A
:100EB0000003014208D0DD08054205D15946CA08A1
:100EC0005C071443291CE246630FC9001943E40080
:100ED0003B4D7FE55846184300D17BE55E46A71B96
:100EE000BC429241C81A5242801A06024CD558465A
:100EF000041BA3459241591A5242891AE24669E5F8
:100F00002F4A9042AED1191C5C46051C62E50028B0
:100F100036D05846184313D080254807E408C9083E
:100F20002D0304432942CFD0D8082842CCD15D46B6
:100F3000EA085C071443011CC6E70023002469E5A6
:100F40001F4D47E500234FE700270022F3E63D1C35
:100F5000203D0E1CEE40351C202F2DD04026F71BC7
:100F6000B9400C43611E8C412C430021D0E60C4358
:100F7000611E8C41E4B200218AE7191C5C4629E518
:100F8000191C5C460E4D25E5031C3B43DCD0011CBF
:100F90003C1C1FE52026764276190A1CF24090463A
:100FA000202D0BD04026751BA9400C43611E8C419F
:100FB00045462C4300216BE70021D2E70021F4E7EE
:100FC000FF070000FFFF7FFFF8B5041E31D0C70FF9
:100FD00000D04442201C00F069F8184D2D1A0A2850
:100FE00019DD0B38844024036D05240B6D0D3A1C6C
:100FF0000026002000210B0D2403240B1B05234396
:101000000F4C2D051C402C4364006408D307211CA1
:10101000301C1943F8BD061C1536231CB3401E1C9A
:101020000B23181AC44024036D05240B6D0D3A1CC4
:10103000DFE70022002500240026DAE71E04000076
:10104000FFFF0F8010B5041E28D000F02FF8154ABE
:10105000121A0A2815DD0B38844024035205240B8C
:10106000520D0023002000212403181C0B0D240B1B
:101070001B0523430C4C12051C40144364006108FB
:1010800010BD031C1533211C99400B1C0B21081AA1
:10109000C44024035205240B520DE3E70022002430
:1010A0000023DFE71E040000FFFF0F801C21012347
:1010B0001B04984201D3000C10391B0A984201D33B
:1010C000000A08391B09984201D30009043902A219
:1010D000105C40187047C046040302020101010180
:1010E0000000000000000000F0B544465F46564690
:1010F0004D46F0B41C1C85B0002900DADBE00F1C63
:101100000021061C8A46101C191C002C00DAC9E0BC
:101110000196009089468046002951D1B84200D8F6
:1011200071E0FFF7C3FF002809D020234546311C9A
:101130001B1A85408740D940A8460F438640424647
:10114000150C13041B0C291C381C9B46FDF7FAFADE
:101150005B464343041C291C381C9946FDF736FBAB
:10116000330C08041843814509D94044631E804567
:1011700000D978E1814500D875E1023C40444946F8
:10118000411A8946081C291CFDF7DCFA5A464243DD
:10119000071C291C48469346FDF718FB3604090432
:1011A000360C0E43B34507D946447B1EB04502D8E2
:1011B000023FB34500D81F1C24042743002403E04A
:1011C000B94211D9002400275246381C211C002A9C
:1011D00003D03B1C00215842A14105B03CBC9046C5
:1011E0009946A246AB46F0BD081CFFF75FFF041E00
:1011F00000D0BFE0B94500D242E1019D0099071C33
:101200008D424741E0E7002804D101200021FDF78D
:1012100099FA80464046FFF749FF002852D14146DF
:1012200044460B043C1B1B0CA3460D0C00930124ED
:10123000291C5846FDF786FA009F81464743291C22
:101240005846FDF7C3FA330C090419438F4208D9F5
:101250004B464144013B884502D88F4200D91AE1F0
:101260009946C91B8B46081C291CFDF76BFA009B8D
:10127000291C4343071C58460093FDF7A7FA360480
:10128000009D0904360C0E43B54207D946447B1E27
:10129000B04502D8023FB54200D81F1C49460E0493
:1012A000374391E75246D243031C0C1C924600215F
:1012B0005842A1412CE7002746428F410121494273
:1012C0008A4620E720231B1A4246351C82403C1CDC
:1012D000DD40DC4087402B1C150C3B43291C86401D
:1012E000201C009317049046FDF72CFA3F0C011CBC
:1012F000794381468B46201C291CFDF767FA009C28
:101300000904230C19438B450CD94B464144013B3E
:10131000884500D9BDE08B4500D8BAE00222524290
:10132000914441445C460C1B201C291C0194FDF790
:1013300009FA391C4143041C8B460198291CFDF70E
:1013400045FA009A090413041B0C19438B4509D96B
:101350004144631E884500D997E08B4500D894E04E
:10136000023C41445B46CB1A49469B460B041C4356
:1013700000975DE7009D20231B1A4A468240DD400E
:101380001543391C009AD94082408846311C00928E
:10139000D9403A1C82400B1C134301932F0C2B04A1
:1013A0001B0C391C40460293FDF7CCF9029A81468A
:1013B0004243391C40469346FDF708FA019A090456
:1013C000130C19438B450AD94B464919013B8D42F1
:1013D0005DD88B455BD902235B42994449195A4633
:1013E0008A1A101C391C0392FDF7ACF9029B804647
:1013F0004343391C03989B46FDF7E8F9019A090419
:1014000013041B0C19438B450AD943464919013B68
:101410008D4238D88B4536D902235B42984449190E
:101420005D464D1BAB464946009D0F04424617439F
:101430002A04120C3B042D0C1B0C380C111C5943B4
:1014400042436B436843D3180D0C5B198C469A4298
:1014500002D98022520280181D0C401983450CD3FA
:1014600003D00024B0E61C1C89E665462A041B0450
:10147000120C9B18A6409E42F3D2013F0024A3E623
:1014800000240127A0E69846CAE71C1C6AE7994693
:10149000A5E7994646E70222524291444144E0E6DC
:1014A000F0B55F4656464D464446F0B40D1C85B037
:1014B000061C924698460290019103921F1C141C30
:1014C0008346A946002B59D1AA4269D9101CFFF7BF
:1014D000EDFD00280AD020231B1A311CD94085407D
:1014E0000B1C2B43864084409946B346250C2304AD
:1014F0001B0C291C48469846FDF724F94646071C54
:101500004643291C4846FDF761F95A460904130C65
:1015100019438E4209D909197B1E8C4200D957E123
:101520008E4200D854E1023F0919891B8946081CE4
:10153000291CFDF707F943464343061C291C48466E
:101540009846FDF743F95A46130409041B0C194346
:10155000884508D90919731E8C4200D936E1023E2C
:10156000884500D832E1380430430027391C05B0E3
:101570003CBC90469946A246AB46F0BD019A9342C8
:1015800062D8181CFFF792FD041E60D1019B9F4298
:1015900000D22CE1029F03998F4260410027E5E7CA
:1015A000002A04D101200021FDF7CCF8041C201CE6
:1015B000FFF77CFD002800D0B9E023042D1B1B0C95
:1015C000A946260C98460127311C4846FDF7BAF873
:1015D00041464143051C8A464846311CFDF7F6F852
:1015E0005A460804130C1843824507D900196B1E8C
:1015F000844202D8824500D910E11D1C5346C31A0B
:10160000181C311C9A46FDF79DF84146414381461E
:1016100088465046311CFDF7D9F85A461304090490
:101620001B0C194388450BD94B460919013B8C42C9
:1016300000D9CFE0884500D8CCE002235B42994432
:1016400028044946084391E7002700208EE720231D
:101650001B1A424657468240DF401743524682409B
:101660000192321CDA40291CD9408540131C2B43BF
:1016700002933D0C3B041B0C8846081C291C9A460F
:10168000FDF760F8534643438146291C40469B467C
:10169000FDF79CF8029A0904130C19438B4506D9EF
:1016A0004B46C919013B8F4200D8ABE099465A46D8
:1016B0008A1A101C291C9346FDF744F853464343ED
:1016C000291C804658469A46FDF780F8029A09047C
:1016D00015042D0C29438A4506D94346C919013BF7
:1016E0008F4200D886E098465746CF1BBA464946F7
:1016F000019F0804424610433D042D0C03043F0C97
:101700001B0C020C291C594355437B437A43EB18AD
:101710000F0CDB198C469D4202D980277F02D2191B
:101720001D0C521992455FD356D000271EE7202387
:101730001B1A311C2F1CD940DF4085400B1C8440F4
:101740002B4386400193B3462304260C1B0C381C04
:10175000311C9846FCF7F6FF42464243051C311CFB
:10176000381C9146FDF732F8019F09043B0C1943E0
:10177000894507D909196B1E8C424DD889454BD92B
:10178000023D09194A468A1A101C311C9246FCF780
:10179000D9FF43464343071C311C50469946FDF789
:1017A00015F8019A090413041B0C1943894507D93C
:1017B00009197B1E8C422DD889452BD9023F091966
:1017C0004B46CB1A2D0499462F43FDE61E1CCAE654
:1017D0001F1CAAE6994633E761460A041B04120C53
:1017E0009B18A6409E42A0D201380027BEE60027E3
:1017F0000120BBE68A4500D875E702235B42984486
:10180000C91971E78B4500D850E702235B42994420
:10181000C9194CE71F1CD3E71D1CB3E7023D001993
:10182000ECE6C046F8B5C046F8BC08BC9E4670471A
:10183000F8B5C046F8BC08BC9E4670476E72665F3D
:1018400070696E20213D202850696E4E616D6529BA
:101850004E4300433A5C55736572735C7A686F6EF1
:10186000675C417070446174615C4C6F63616C5C77
:1018700041726475696E6F31355C7061636B61676D
:1018800065735C526564426561725C68617264771D
:101890006172655C6E524635313832325C312E30C1
:1018A0002E385C636F7265735C52424C5F6E5246B9
:1018B00035313832325C776972696E675F616E61AB
:1018C0006C6F672E63707000433A5C55736572737A
:1018D0005C7A686F6E675C417070446174615C4CE7
:1018E0006F63616C5C41726475696E6F31355C70F9
:1018F00061636B616765735C526564426561725CCC
:1019000068617264776172655C6E52463531383257
:10191000325C312E302E385C636F7265735C5242DC
:101920004C5F6E524635313832325C776972696E7F
:10193000675F6469676974616C2E637070006D62C3
:101940006564206173736572746174696F6E20667B
:1019500061696C65643A2025732C2066696C653A70
:101960002025732C206C696E65202564200A006F89
:10197000626A2D3E70696E20213D202850696E4EAE
:10198000616D65294E4300433A5C55736572735C23
:101990007A686F6E675C417070446174615C4C6F13
:1019A00063616C5C41726475696E6F31355C706146
:1019B000636B616765735C526564426561725C6804
:1019C000617264776172655C6E52463531383232CD
:1019D0005C312E302E382F636F7265732F52424C5C
:1019E0005F6E524635313832322F6D6265642F7426
:1019F0006172676574732F68616C2F54415247455B
:101A0000545F4E4F524449432F5441524745545F0F
:101A10004D43555F4E524635313832322F6770692B
:101A20006F5F6F626A6563742E6800433A5C55733A
:101A30006572735C7A686F6E675C41707044617444
:101A4000615C4C6F63616C5C41726475696E6F318F
:101A5000355C7061636B616765735C526564426598
:101A600061725C68617264776172655C6E52463562
:101A7000313832325C312E302E385C636F726573D0
:101A80005C52424C5F6E524635313832325C6D6288
:101A900065645C746172676574735C68616C5C54E6
:101AA00041524745545F4E4F524449435C54415262
:101AB0004745545F4D43555F4E52463531383232BB
:101AC0005C6770696F5F6170692E6300433A5C55B3
